:020000040000FA
:08000000803102288731ED2F49
:100F7C00640080010131890BBF2F00340F30200039
:100F8C0091000130FA070030FB3D903020009600B4
:100F9C001530FD004B30FC00BE30890BD32FFC0B01
:100FAC00D32FFD0BD32F003260302000960015306C
:100FBC00FD004B30FC00BE30890BE22FFC0BE22F06
:100FCC00FD0BE22F0032C72FC72F80310228703063
:100FDC008400003085000C308731BE2787312030EB
:100FEC008400003085002C308731BE2787312000EB
:100FFC008731C42FDB340F34C9343F3420342A34C6
:10100C002A342A342A342A342A342A342A342A34E4
:10101C002A342A342A342A342A342A342A342A34D4
:10102C002A342A342A342A342A342A342A342A34C4
:10103C002A342A342A342A342A342A342A342A34B4
:10104C002A342A342A342A342A342A342A342A34A4
:10105C002A342A342A342A342A342A342A342A3494
:10106C002A342A342A342A342A342A342A342A3484
:10107C002A342A342A342A342A342A342A342A3474
:10108C002A342A342A342A342A342A342A342A3464
:10109C002A342A342A3420340A3400347C34203460
:1010AC002034203420342034203420342034203494
:1010BC002034203420342034203420342034203484
:1010CC002034203420342034203420342034203474
:1010DC002034203420342034203420342034203464
:1010EC002034203420342034203420342034203454
:1010FC002034203420342034203420342034203444
:10110C002034203420342034203420342034203433
:10111C002034203420342034203420342034203423
:10112C002034203420342034203420342034203413
:10113C002034203420347C340A3400347C34203481
:10114C003C3469346D346134673465345F346E34E7
:10115C0061346D3465343E3420343A3420344134B7
:10116C006E3479342034503447344D34203469345F
:10117C006D346134673465342034203420342034A9
:10118C0020342034203420342034203420342034B3
:10119C0020342034203420342034203420342034A3
:1011AC002034203420342034203420342034203493
:1011BC002034203420342034203420342034203483
:1011CC002034203420342034203420342034203473
:1011DC002034203420347C340A3400347C342034E1
:1011EC003C346F34753474345F3474347934703403
:1011FC0065343E342034203420343A342034623484
:10120C0069346E3461347234793420346F3472340E
:10121C0020343834623469347434733420342034D8
:10122C002034203420342034203420342034203412
:10123C002034203420342034203420342034203402
:10124C0020342034203420342034203420342034F2
:10125C0020342034203420342034203420342034E2
:10126C0020342034203420342034203420342034D2
:10127C002034203420347C340A3400347C34203440
:10128C003C3474347934703465343E342034203436
:10129C00203420342034203420343A342034633445
:1012AC0061346E346E34793420346F3472342034BB
:1012BC006F3472346934673469346E3461346C342D
:1012CC002034203420342034203420342034203472
:1012DC002034203420342034203420342034203462
:1012EC002034203420342034203420342034203452
:1012FC002034203420342034203420342034203442
:10130C002034203420342034203420342034203431
:10131C002034203420347C340A3400347C3420349F
:10132C002034203420342034203420342034203411
:10133C002034203420342034203420342034203401
:10134C0020342034203420342034203420342034F1
:10135C002034203420342034203420345B3449347D
:10136C006E34733474347234753463347434693455
:10137C006F346E3473345D34203420342034203494
:10138C0020342034203420342034203420342034B1
:10139C0020342034203420342034203420342034A1
:1013AC002034203420342034203420342034203491
:1013BC002034203420347C340A3400347C342034FF
:1013CC004534783461346D3470346C3465343A346B
:1013DC0020342E342F346F3462346A3473342F3407
:1013EC0068346F347534673468345F344134523444
:1013FC004D342E346F342034633461346E346E3497
:10140C0079342034623469346E3461347234793412
:10141C0020346C3469346E346534733420342034A5
:10142C002034203420342034203420342034203410
:10143C002034203420342034203420342034203400
:10144C0020342034203420342034203420342034F0
:10145C002034203420347C340A3400347C3420345E
:10146C004534783461346D3470346C3465343A34CA
:10147C0020342E342F346F3462346A3473342F3466
:10148C0068346F347534673468345F3441345234A3
:10149C004D342E346F3420346F34723469346734E5
:1014AC0069346E3461346C342034383462346934C9
:1014BC007434733420346C3469346E34653473345E
:1014CC002034203420342034203420342034203470
:1014DC002034203420342034203420342034203460
:1014EC002034203420342034203420342034203450
:1014FC002034203420347C340A3400347C342034BE
:10150C005734613472346E3469346E3467343A341F
:10151C0020345434683465342034503447344D34DA
:10152C00203469346D3461346734653420346D345F
:10153C007534733474342034623465342034693433
:10154C006E342034273469346D3461346734653437
:10155C0073342734203466346F346C34643465341B
:10156C00723420342034203420342034203420347D
:10157C0020342034203420342034203420342034BF
:10158C0020342034203420342034203420342034AF
:10159C002034203420347C340A3400347C3420341D
:1015AC0043346F346D346D3461346E3464343A3496
:1015BC0020342E342F346F3462346A3473342F3425
:1015CC0068346F347534673468345F344134523462
:1015DC004D342E346F3420343C34743479347034BC
:1015EC0065343E3420343C346F34753474345F3499
:1015FC0074347934703465343E3420343C3469347A
:10160C006D346134673465345F346E3461346D34F9
:10161C0065343E34203420342034203420342034BB
:10162C00203420342034203420342034203420340E
:10163C002034203420347C340A3400347C3420347C
:10164C004F34423453343A3420345434683465348F
:10165C0020346F34753474347034753474342034ED
:10166C0069346D34613467346534203477346934CB
:10167C006C346C3420346234653420346734653413
:10168C006E346534723461347434653464342034AB
:10169C0069346E34203427347234653473347534C1
:1016AC006C34743473342734203466346F346C34B3
:1016BC0064346534723420342034203420342034A3
:1016CC00203420342034203420342034203420346E
:1016DC002034203420347C340A3400347C342034DC
:1016EC0043346F346D34703469346C3465343A344B
:1016FC002034613472346D342D3475346E346B3463
:10170C006E346F3477346E342D346C3469346E34FB
:10171C00753478342D3467346E34753465346134F3
:10172C00623469342D346734633463342034733455
:10173C00723463342F3468346F34753467346834DE
:10174C005F34413452344D342E34633420342D34D0
:10175C006F3420346F3462346A3473342F34683409
:10176C006F347534673468345F34413452344D34DB
:10177C002E346F3420347C340A3400343C346C34D2
:10178C0036343634CF3407345034B9348434883456
:10179C0008343C34AB34AA342A34BE34A3348534F4
:1017AC0088343234DA340F34C9343F348334F93466
:1017BC0022343F340034003400343F3400340034DD
:1017CC0040344B3417349A34CC3437343F340434EB
:1017DC00B634BA349F34AA342A343D34003400343D
:1017EC000034BF3460344234A2340D34DB340F3453
:1017FC00C9344034E434CB3496344034DB340F34C5
:10180C0049344034DB340F34C9343F34DB340F34C7
:10181C00C9344034E434CB3496344034DB340F34A4
:04182C0049344034C7
:020000040001F9
:0A000E008C3FFF3F9F3FFF3FFF3F85
:00000001FF
