:020000040000FA
:08000000803102288731E72F4F
:100FA2000F30200091009601961796131617D92F2D
:100FB200803102286400800101310130FE020030DC
:100FC200FF3B7F087E04031DDC2F00346030840069
:100FD200223085009030FE000130FF008731DB2790
:100FE200873170308400003085000C30FE00003004
:100FF200FF008731DB27873120008731D12F3C3436
:101002006C3436343634CF3407345034B934843403
:10101200883408343C34AB34AA342A34BE34A33482
:10102200853488343234DA340F34C9343F3483346B
:10103200F93422343F340034003400343F34003475
:10104200003440344B3417349A34CC3437343F3480
:101052000434B634BA349F34AA342A343D340034CA
:1010620000340034BF34DB340F34C9344034E43448
:10107200CB3496344034DB340F3449344034DB34DF
:101082000F34C9343F34DB340F34C9344034E434D0
:10109200CB3496344034DB340F3449344034DB34BF
:0610A2000F34C9343F3495
:020000040001F9
:0A000E008C3FFF3F9F3FFF3FFF3F85
:00000001FF
