:020000040000FA
:08000000803102288731E22F54
:10000A00FE0012001E000130FE020030FF3B7F0896
:10001A007E04031D062800340F302000910096014B
:10002A0096178031452080312000961316171D2817
:10003A0080310228F800F401F5017008F200F3019A
:10004A007208F6007308F7002A28781C2D282E2833
:10005A0032287608F4077708F53D0130F635F70DB2
:10006A00890B33280310F80C7808031D3D283E2815
:10007A002A283F287508F1007408F000442808006F
:10008A002200D501D6015608803A2100DE008030D0
:10009A005E02031D5328B43022005502031C562861
:1000AA0057285928DE2ADE2A43302000BD00343082
:1000BA00BC000030BB000030BA004030A300493019
:1000CA00A2000F30A100DB30A00022005508F0008A
:1000DA005608F100890D893B8909F200F3000130C5
:1000EA009D316D25803173082000A7007208A60093
:1000FA007108A5007008A40095319525803120006B
:10010A002308C1002208C0002108BF002008BE0041
:10011A009E312126803120003D082200CA0020009D
:10012A003C082200C90020003B082200C800200029
:10013A003A082200C7004A082100D90022004908CB
:10014A002100D800220048082100D70022004708D1
:10015A002100D6008231DF22803121005908220095
:10016A00C200210058082200C100210057082200BD
:10017A00C000210056082200BF0042302000DB00E8
:10018A00B430DA000030D9000030D8002200550817
:10019A00F0005608F100890D893B8909F200F30045
:1001AA0001309D316D25803173082000A700720847
:1001BA00A6007108A5007008A4004030A3004930C9
:1001CA00A2000F30A100DB30A000953195258031C7
:1001DA0020002308C1002208C0002108BF0020080F
:1001EA00BE004330BD003430BC000030BB000030DC
:1001FA00BA009E312126803120003D08D7003C08F4
:10020A00D6003B08D5003A08D4009C31CA24803174
:10021A0020005708DF005608DE005508DD005408A4
:10022A00DC008931BE21803120005B082200CE002B
:10023A0020005A082200CD00200059082200CC00D4
:10024A00200058082200CB004E082100D9002200C5
:10025A004D082100D80022004C082100D7002200B6
:10026A004B082100D6008231DF2280312100590853
:10027A002200C600210058082200C50021005708A4
:10028A002200C400210056082200C300D301D40171
:10029A005408803A2100DE0080305E02031D58298E
:1002AA00383022005302031C5B295C295E29C92AC3
:1002BA00C92A2200BE01D701D8015808803A210074
:1002CA00DE0080305E02031D6D29143022005702C1
:1002DA00031C702971297329B42AB42A2200D9016E
:1002EA00DA015A08803A2100DE0080305E02031DDE
:1002FA008129143022005902031C8429852987295F
:10030A009F2A9F2A22005808F1005708F00014304B
:10031A00F2000030F30090310C208031220059089D
:10032A0070072100DE0022005A08713D2100DF001B
:10033A006030E0002230E1005E08600786005F0856
:10034A00613D8700C83001020318AC29AD298A2A09
:10035A00220046082000A300220045082000A2002F
:10036A00220044082000A100220043082000A00027
:10037A0022005908F0005A08F100890D893B8909C1
:10038A00F200F30001309D316D25803173082000A1
:10039A00A7007208A6007108A5007008A40095318C
:1003AA009525803120002308DB002208DA00210885
:1003BA00D9002008D800220042082000A300220009
:1003CA0041082000A200220040082000A1002200CB
:1003DA003F082000A00022005708F0005808F1004A
:1003EA00890D893B8909F200F30001309D316D25A1
:1003FA00803173082000A7007208A6007108A500C2
:10040A007008A40095319525803120002308DF006B
:10041A002208DE002108DD002008DC008931BE2127
:10042A00803120005B082200D20020005A082200F6
:10043A00D100200059082200D000200058082200CC
:10044A00CF000030D2000030D1000030D0000030A0
:10045A00CF0052082000DF00220051082000DE00F1
:10046A00220050082000DD0022004F082000DC0096
:10047A004130DB00E030DA000030D9000030D8002B
:10048A008931BE21803120005B082100A3002000B1
:10049A005A082100A200200059082100A1002000CA
:1004AA0058082100A00090317F20803121002308C4
:1004BA00B7002208B6002108B5002008B4002200BF
:1004CA005308F0005408F100890D893B8909F200AC
:1004DA00F30001309D316D25803173082100BB0086
:1004EA007208BA007108B9007008B80090312E205D
:1004FA008031031C812A822A8A2A01302100DE00E7
:10050A005E082200BE078A2A8A2A01302200D907F9
:10051A000030DA3D5A08803A2100DE0080305E025F
:10052A00031D9A2A143022005902031C9D2A9E2A6E
:10053A0087299F2A01302200D7070030D83D580862
:10054A00803A2100DE0080305E02031DAF2A14309B
:10055A0022005702031CB22AB32A7329B42A013093
:10056A002200D3070030D43D5408803A2100DE002F
:10057A0080305E02031DC42A383022005302031C55
:10058A00C72AC82A5E29C92A01302200D5070030A5
:10059A00D63D5608803A2100DE0080305E02031DF7
:1005AA00D92AB43022005502031CDC2ADD2A592834
:1005BA00DE2A0800210059082200A7002100580855
:1005CA002200A600210057082200A5002100560893
:1005DA002200A4002708BD002608BC002508BB008D
:1005EA002408BA00F82A3A082100DA0022003B0857
:1005FA002100DB0022003C082100DC0022003D082B
:10060A002100DD001F30DD36DC0CDB0CDA0C890B37
:10061A00082B5B082200B10021005A082200B00012
:10062A00FF30BA05FF30BB05FF30BC057F30BD0582
:10063A00DB303A020F303B3B49303C3B3F303D3BDD
:10064A000318282B292B532B80303C0239303D3B91
:10065A000318302B312B3C2B3F302100D90080303E
:10066A00D8000030D7000030D600E12FE12F21005A
:10067A005908A3005808A2005708A1005608A0006C
:10068A0091316721823121002308D9002208D8003C
:10069A002108D7002008D600E12FE12FD23022000E
:1006AA003A0253303B3B7B303C3B40303D3B0318E6
:1006BA005F2B602B032DE4303A02CB303B3B1630E4
:1006CA003C3B40303D3B031C6B2B6C2B352C3008DC
:1006DA003104031D712B722BBE2B210059082000F7
:1006EA00DB00210058082000DA002100570820000A
:1006FA00D900210056082000D8003C3084009830E8
:10070A008500003F2100DA00013FDB00023FDC00E8
:10071A00033FDD005D082000D70021005C082000AF
:10072A00D60021005B082000D50021005A082000CD
:10073A00D4009C31CA24823120005708DF005608B1
:10074A00DE005508DD005408DC008931BE21823103
:10075A0020005B082200AB0020005A082200AA00F1
:10076A00200059082200A900200058082200A800E9
:10077A00FD2B3C30840098308500003F2100DA00D0
:10078A00013FDB00023FDC00033FDD005D08200083
:10079A00DB0021005C082000DA0021005B08200051
:1007AA00D90021005A082000D80021005908200049
:1007BA00DF00210058082000DE0021005708200031
:1007CA00DD00210056082000DC008931BE2182317B
:1007DA0020005B082200AB0020005A082200AA0071
:1007EA00200059082200A900200058082200A80069
:1007FA002B082100A30022002A082100A2002200BF
:10080A0029082100A100220028082100A000913116
:10081A0067218231210023082000D7002100220805
:10082A002000D600210021082000D5002100200840
:10083A002000D4009C31CA248231200057082100AC
:10084A00D900200056082100D800200055082100B0
:10085A00D700200054082100D600E12FE12F032DF4
:10086A0022003008310403193B2C3C2C992C4030CF
:10087A00840098308500003F2100DA00013FDB0048
:10088A00023FDC00033FDD005D082000DB002100A1
:10089A005C082000DA0021005B082000D900210052
:1008AA005A082000D800210059082000DF00210042
:1008BA0058082000DE00210057082000DD00210032
:1008CA0056082000DC008931BE21823120005B08F5
:1008DA002200B50020005A082200B400200059085E
:1008EA002200B300200058082200B2003508210077
:1008FA00A300220034082100A200220033082100AC
:10090A00A100220032082100A00093316223823123
:10091A0021002308D9002208D8002108D70020087E
:10092A00D600E12FE12F032D403084009830850056
:10093A00003F2100DA00013FDB00023FDC00033FF9
:10094A00DD005D082000DB0021005C082000DA00E1
:10095A0021005B082000D90021005A082000D80095
:10096A00210059082000D700210058082000D6008D
:10097A00210057082000D500210056082000D40085
:10098A009C31CA24823120005708DF005608DE0055
:10099A005508DD005408DC008931BE21823120006F
:1009AA005B082200B50020005A082200B40020008B
:1009BA0059082200B300200058082200B200350866
:1009CA002100A300220034082100A20022003308DB
:1009DA002100A100220032082100A00093316223E5
:1009EA00823121002308D9002208D8002108D70023
:1009FA002008D600E12FE12F032D032DD630220047
:100A0A003A0231303B3BE2303C3B40303D3B03183D
:100A1A000F2D102DA52EE0303A02ED303B3BAF30C2
:100A2A003C3B40303D3B031C1B2D1C2DCB2D30087D
:100A3A003104031D212D222D6E2D2100590820007D
:100A4A00DB00210058082000DA00210057082000A6
:100A5A00D900210056082000D8003430840098308C
:100A6A008500003F2100DA00013FDB00023FDC0085
:100A7A00033FDD005D082000D70021005C0820004C
:100A8A00D60021005B082000D50021005A0820006A
:100A9A00D4009C31CA24823120005708DF0056084E
:100AAA00DE005508DD005408DC008931BE218231A0
:100ABA0020005B082200AF0020005A082200AE0086
:100ACA00200059082200AD00200058082200AC007E
:100ADA00AD2D3430840098308500003F2100DA00C3
:100AEA00013FDB00023FDC00033FDD005D08200020
:100AFA00DB0021005C082000DA0021005B082000EE
:100B0A00D90021005A082000D800210059082000E5
:100B1A00DF00210058082000DE00210057082000CD
:100B2A00DD00210056082000DC008931BE21823117
:100B3A0020005B082200AF0020005A082200AE0005
:100B4A00200059082200AD00200058082200AC00FD
:100B5A002F082100A30022002E082100A200220053
:100B6A002D082100A10022002C082100A0009131AB
:100B7A006721823121002308D9002208D8002108E0
:100B8A00D7002008D600E12FE12FA52E2200300839
:100B9A0031040319D12DD22D3B2E210059082000F2
:100BAA00DF00210058082000DE002100570820003D
:100BBA00DD00210056082000DC003830840098301F
:100BCA008500003F2100DA00013FDB00023FDC0024
:100BDA00033FDD005D082000DB0021005C082000E7
:100BEA00DA0021005B082000D90021005A08200001
:100BFA00D8008931BE21823120005B08D7005A080B
:100C0A00D6005908D5005808D4009C31CA2482312C
:100C1A00200057082200B500200056082200B40020
:100C2A00200055082200B300200054082200B20018
:100C3A0035082100A300220034082100A200220066
:100C4A0033082100A100220032082100A0009331BC
:100C5A006223823121002308D9002208D800210802
:100C6A00D7002008D600E12FE12FA52E2100590830
:100C7A002000DB00210058082000DA002100570874
:100C8A002000D900210056082000D80038308400FE
:100C9A0098308500003F2100DA00013FDB00023F67
:100CAA00DC00033FDD005D082000D70021005C085E
:100CBA002000D60021005B082000D50021005A0838
:100CCA002000D4009C31CA24823120005708DF005A
:100CDA005608DE005508DD005408DC008931BE21C3
:100CEA00823120005B082200B50020005A08220049
:100CFA00B400200059082200B3002000580822003E
:100D0A00B20035082100A300220034082100A20005
:100D1A00220033082100A100220032082100A0008D
:100D2A0093316223823121002308D9002208D80096
:100D3A002108D7002008D600E12FE12FA52EA52EE5
:100D4A00803022003C027F303D3B031CAD2EAE2E8C
:100D5A00EF2E210059082000DB002100580820004E
:100D6A00DA00210057082000D90021005608200087
:100D7A00D800210059082000D70021005808200077
:100D8A00D600210057082000D5002100560820006F
:100D9A00D4009C31CA24823120005708DF0056084B
:100DAA00DE005508DD005408DC008931BE2182319D
:100DBA0020005B082100D90020005A082100D80031
:100DCA00200059082100D700200058082100D60029
:100DDA00E12FE12F21005908AE005808AD0057084D
:100DEA00AC005608AB003630DA005A08AF008C3136
:100DFA003024823121002B082200A00021002C0877
:100E0A002200A100890D893B8909A200A300B32F02
:100E1A00220039082100A300220038082100A2007C
:100E2A00220037082100A100220036082100A00074
:100E3A0091316721823121002308D9002208D80084
:100E4A002108D7002008D600E12FE12F2200390817
:100E5A002000D700220038082000D60022003708D8
:100E6A002000D500220036082000D4009C31CA2474
:100E7A008231200057082100A300200056082100D3
:100E8A00A200200055082100A100200054082100DA
:100E9A00A00093316223823121002308D90022085D
:100EAA00D8002108D7002008D600E12FE12F220020
:100EBA0039082100A300220038082100A2002200DC
:100ECA0037082100A100220036082100A000913134
:100EDA0067218231210023082000D700210022083F
:100EEA002000D600210021082000D500210020087A
:100EFA002000D4009C31CA248231200057082100E6
:100F0A00D900200056082100D800200055082100E9
:100F1A00D700200054082100D600E12FE12F22003B
:100F2A0039082100A300220038082100A20022006B
:100F3A0037082100A100220036082100A0009331C1
:100F4A006223823121002308D9002208D80021080F
:100F5A00D7002008D600E12FE12FE12F033022002D
:100F6A0020052100DA000030220021052100DB00E3
:100F7A000030220022052100DC0000302200230577
:100F8A002100DD005D08003A0319DC2F942F5B086D
:100F9A00003A0319D12F942F5A08003A03190D2F3A
:100FAA00013A03192B2F033A03195C2F942F5C087B
:100FBA00003A0319CC2F942F08002E308400883071
:100FCA00850060308600223087000130FF009030B3
:100FDA008031052087312100E201E301E401E501C6
:100FEA00E601E701E801E901EA01EB01EC01ED01A3
:060FFA00200080311128E7
:1010160021006508F7006408F6006308F500620819
:10102600F4007308F7007208F6007108F5007008FE
:10103600F400FF30F405FF30F505FF30F6057F308C
:10104600F7057708F3007608F2007508F1007408D2
:10105600F0002D280800FF34FF34FF34FF34FF343E
:10106600FF34FF34FF34FF34FF34FF34FF34FF34E2
:10107600FF34FF34FF34FF34FF34FF34FF34FF34D2
:10108600FF34FF34FF34FF34FF34FF34FF34FF34C2
:10109600FF34FF34FF34FF34FF34FF34FF34FF34B2
:1010A600FF34FF34FF34FF34FF34FF34FF34FF34A2
:1010B600FF34FF34FF34FF34FF34FF34FF34FF3492
:1010C600FF34FF34FF34FF34FF34FF34FF34FF3482
:1010D600FF34FF34FF34FF34FF34FF34FF34FF3472
:1010E600FF34FF34FF34FF34FF34FF348034FF34E1
:1010F600FF34FF34FF34FF34FF34FF34FF34FF3452
:10110600FF34FF34FF34FF34FF34FF34FF34FF3441
:10111600FF340034FF34FF34FF34FF34FF34FF3430
:10112600FF34FF34FF34FF34FF34FF34FF34FF3421
:10113600FF34FF34FF34FF340034FF34FF34FF3410
:10114600FF34FF34FF34FF34FF34FF34FF34FF3401
:10115600FF34FF34FF34FF34FF34FF34FF340034F0
:10116600FF34FF34FF34FF34FF34FF34FF34FF34E1
:10117600FF34FF34FF348034FF34FF34FF34FF3450
:10118600FF34FF340034FF34FF34FF34FF34FF34C0
:10119600FF34FF34FF34FF34FF34FF34FF34FF34B1
:1011A6000034FF34FF34FF34FF340034FF34FF349F
:1011B600FF34FF34FF34FF34FF34FF34FF34FF3491
:1011C600FF34FF34FF34FF34FF340034FF34FF3480
:1011D6000034FF34FF34FF34FF34FF34FF34FF3470
:1011E600FF34FF34FF34FF34FF34FF34FF34FF3461
:1011F600FF34FF3400340034FF34FF34FF34FF344F
:10120600FF34FF34FF34FF34FF34FF34FF34FF3440
:10121600FF34FF34FF34FF34FF34FF34003400342E
:10122600FF34FF34FF34FF34FF34FF34FF34FF3420
:10123600FF34FF34FF34FF34FF34FF34FF34FF3410
:10124600FF340034FF34FF340034FF34FF34FF34FE
:10125600FF34FF34FF34FF34FF34FF34FF34FF34F0
:10126600FF34FF34FF34FF340034FF34FF34FF34DF
:10127600FF340034FF34FF34FF34FF34FF34FF34CF
:10128600FF34FF34FF34FF34FF34FF34FF3480343F
:10129600FF34FF34FF34FF34FF34FF340034FF34AF
:1012A600FF34FF34FF34FF34FF34FF34FF34FF34A0
:1012B600FF34FF34FF34FF34FF34FF34FF34FF3490
:1012C600FF34FF34FF340034FF34FF34FF34FF347F
:1012D600FF34FF34FF34FF34FF34FF34FF34FF3470
:1012E600FF34FF34FF34FF34FF34FF34FF34FF3460
:1012F6000034FF34FF34FF34FF34FF34FF34FF344F
:10130600FF34FF34FF34FF34FF34FF34FF34FF343F
:10131600FF34FF34FF34FF34FF340034FF34FF342E
:10132600FF34FF34FF34FF34FF34FF34FF34FF341F
:10133600FF34FF34FF34FF34FF34FF34FF34FF340F
:10134600FF34FF348034FF34FF34FF34FF34FF347E
:10135600FF34FF34FF34FF34FF34FF34FF34FF34EF
:10136600FF34FF34FF34FF34FF34FF34FF34FF34DF
:10137600FF34FF34FF3420005B088039E00060084A
:10138600EC005B35E0006008EE00DA1FCB29CC29C3
:10139600CE296E14CE296E080319D229D329E42941
:1013A6006E0A031DD729D829E1290030DB00003059
:1013B600DA000030D9000030D800E129DA17DB0165
:1013C600ED290030DB000030DA000030D9000030B3
:1013D600D800ED295F088039E0006008ED006D084F
:1013E6006C060319F729F829FA296C17FA295F35CB
:1013F600E0006008ED00DE1F012A022A042A6D14AF
:10140600042A6D080319082A092A1A2A6D0A031DD7
:101416000D2A0E2A172A0030DF000030DE000030C9
:10142600DD000030DC00172ADE17DF01222A00303B
:10143600DF000030DE000030DD000030DC006E082A
:101446006D020318272A282A6E2A6C1F2B2A2C2A9B
:10145600312A8030E0006008EC06312A6E08E00090
:101466006008EF006D08E0006008EE006F08E0001D
:101476006008ED005808E0006008EF005C08E00036
:101486006008D8006F08E0006008DC005908E0003A
:101496006008EF005D08E0006008D9006F08E00012
:1014A6006008DD005A08E0006008EF005E08E00012
:1014B6006008DA006F08E0006008DE005B08E00004
:1014C6006008EF005F08E0006008DB006F08E000DE
:1014D6006008DF006E2AEF016E08E000E101E00916
:1014E600E109E00A0319E10A6D086007E2006108F4
:1014F6000318610AE3006308803AE400803064025E
:10150600031D872A1A306202031C8A2A8B2AC72ADD
:1015160020005B085A0459045804031D932A952A8F
:101526000130962A0030E0006008EF000030DB0052
:101536000030DA000030D9000030D8006D08E00035
:101546006008EE00CF2AC72A6F1CAA2AAB2AB12A46
:101556006F360138E0006008EF00B42A0310EF0C84
:10156600B42A581CB72AB82ABA2AEF17BA2A013061
:10157600E000DB37DA0CD90CD80CE00BBC2A0130C2
:10158600E0006008EE07C72A20006D086E02031C03
:10159600CD2ACE2AA72ACF2A6C1BD22AD32A0F2BD2
:1015A6006E08031DD72AD82AE22A0030DB00003055
:1015B600DA000030D9000030D8002F2C2F2C5C0820
:1015C600D8075D08D93D5E08DA3D5F08DB3D5B1C48
:1015D600ED2AEE2AB62B6F1CF12AF22AF82A6F366C
:1015E6000138E0006008EF00FB2A0310EF0CFB2A2D
:1015F600581CFE2AFF2A012BEF17012B0130E000B1
:10160600DB37DA0CD90CD80CE00B032B0130E000E9
:101616006008EE07B62BB62B5B08803AE0005F0841
:10162600803A6002031D212B5E085A02031D212BFE
:101636005D085902031D212B5C0858020318242B50
:10164600252B712BFF30E000FF30E100FF30E20078
:10165600FF30E3005C08E4005D08E5005E08E60094
:101666005F08E7005809E8005909E9005A09EA0045
:101676005B09EB00E80A0319E90A0319EA0A0319E8
:10168600EB0A6808E4076908E53D6A08E63D6B0869
:10169600E73D6408E0076508E13D6608E23D670846
:1016A600E33D6308DB006208DA006108D9006008E0
:1016B600D8008030E0006008EC06EF09EF0A6F08FA
:1016C600031D662B672B792B0130D8070030D93DD7
:1016D6000030DA3D0030DB3D792B792B5C08D802EF
:1016E6005D08D93B5E08DA3B5F08DB3B5B085A04C2
:1016F60059045804031D802B812BB02B6F08031D42
:10170600852B862BB02B0030DB000030DA00003052
:10171600D9000030D8002F2C2F2CB02B0130D83513
:10172600D90DDA0DDB0D890B922BEF1F9B2B9C2B12
:101736009D2B58146F1CA02BA12BA42B0314EF0D6B
:10174600A72B0310EF0DA72B6E080319AB2BAC2BA1
:10175600B02B0130EE02B02BB02BDA1FB32BB42B1B
:10176600912BB62BB62BED01EF1FBA2BBB2BCD2B36
:101776006F087F390319C02BC12BC42BED01ED0A6D
:10178600CD2B581CC72BC82BCD2BED01ED0ACD2B2D
:10179600CD2BCD2B6D080319D12BD22B012C01306B
:1017A600D8070030D93D0030DA3D0030DB3D5B1C08
:1017B600DD2BDE2B012C5808E0005908E1005A0801
:1017C600E2005B08E3000130E400E337E20CE10CE1
:1017D600E00CE40BE82B6308DB006208DA00610822
:1017E600D9006008D8006E0A0319FA2BFB2B012CCE
:1017F6000130E0006008EE07012C012C6E0A031987
:10180600052C062C0C2C6E08031D0A2C0B2C1C2CEC
:101816000C2C0030DB000030DA000030D90000303C
:10182600D8006E08031D182C192C1C2CEC011C2C3E
:101836001C2C6E1C1F2C202C222CDA17262C7F30F9
:10184600E0006008DA056E36E0006008DB00EC1F99
:101856002D2C2E2C2F2CDB17080021006908C50023
:101866006808C4006708C3006608C2002E08C500E1
:101876002D08C4002C08C3002B08C2004208B00083
:101886004308B1004408B2004508B3001F30B33620
:10189600B20CB10CB00C890B4A2C3108C1003008CF
:1018A600C000FF304205BC00FF304305BD00FF30DD
:1018B6004405BE007F304505BF0080303E027F30C4
:1018C6003F3B031C672C682CA92C2E082000DB004C
:1018D60021002D082000DA0021002C082000D90064
:1018E60021002B082000D80021002E082000D70058
:1018F60021002D082000D60021002C082000D5004C
:1019060021002B082000D4009C31CA248C312000F1
:101916005708DF005608DE005508DD005408DC00D5
:101926008931BE218C3121002F08860001308700C5
:1019360020005808C03F5908C13F5A08C23F5B08FB
:10194600C33F2100AB01AC01FF2FFF2FDB303C0270
:101956000F303D3BC9303E3B4D303F3B0318B42C66
:10196600B52C532E2E08F3002D08F2002C08F1009A
:101976002B08F00088310B208C3173082100D10030
:101986007208D0007108CF007008CE005108200000
:10199600A700210050082000A60021004F082000C3
:1019A600A50021004E082000A400183084009830BD
:1019B6008500003F2100B000013FB100023FB200A8
:1019C600033FB30033082000A300210032082000A3
:1019D600A200210031082000A100210030082000CB
:1019E600A000953195258C3120002308DF002208C0
:1019F600DE002108DD002008DC001C308400983061
:101A06008500003F2100B400013FB500023FB6004B
:101A1600033FB70037082000DB002100360820000E
:101A2600DA00210035082000D90021003408200002
:101A3600D8008931BE218C3120005B082100A3002B
:101A460020005A082100A200200059082100A10008
:101A5600200058082100A0009C31D8248C31210098
:101A66002308D5002208D4002108D3002008D2007C
:101A76005508F3005408F2005308F1005208F0002C
:101A860001309D316D258C3173082100CD0072081F
:101A9600CC007108CB007008CA0051082000DB009A
:101AA600210050082000DA0021004F082000D9004C
:101AB60021004E082000D80021004D082000A70074
:101AC60021004C082000A60021004B082000A5009C
:101AD60021004A082000A4001430840098308500B4
:101AE600003F2100B000013FB100023FB200033FBA
:101AF600B30033082000A300210032082000A20012
:101B0600210031082000A100210030082000A0009B
:101B1600953195258C3120002308D7002208D60060
:101B26002108D5002008D4009C31CA248C3120001D
:101B36005708DF005608DE005508DD005408DC00B3
:101B46008931BE218C3120005B082100C9002000AC
:101B56005A082100C800200059082100C7002000AB
:101B660058082100C6004D082000A70021004C0897
:101B76002000A60021004B082000A50021004A08ED
:101B86002000A4001030840098308500003F21001A
:101B9600B000013FB100023FB200033FB30033087B
:101BA6002000A300210032082000A20021003108F5
:101BB6002000A100210030082000A00095319525C5
:101BC6008C3120002308D7002208D6002108D50032
:101BD6002008D4009C31CA248C3120005708DB0031
:101BE6005608DA005508D9005408D80021004908DB
:101BF6002000DF00210048082000DE002100470801
:101C06002000DD00210046082000DC008931BE21CD
:101C16008C3121002F0886000130870020005808EB
:101C2600C03F5908C13F5A08C23F5B08C33F210065
:101C3600400841040319202E212E4D2E2F08860020
:101C460001308700403F2000D400413FD500423F8D
:101C5600D600433FD7009C31CA248C3121002F087F
:101C660086000130870020005408C03F5508C13F58
:101C76005608C23F5708C33F21005209B000530916
:101C8600B100B00A0319B10A3008AB003108AC0044
:101C9600FF2FFF2F5308AC005208AB00FF2FFF2F7A
:101CA6002E08F3002D08F2002C08F1002B08F00096
:101CB60088310B208C3173082100D1007208D000C6
:101CC6007108CF007008CE0051082000A70021003F
:101CD60050082000A60021004F082000A500210082
:101CE6004E082000A4001830840098308500003F7C
:101CF6002100B000013FB100023FB200033FB30034
:101D060033082000A300210032082000A200210091
:101D160031082000A100210030082000A0009531E4
:101D260095258C3120002308DF002208DE002108DB
:101D3600DD002008DC001C30840098308500003F60
:101D46002100B400013FB500023FB600033FB700D3
:101D560037082000DB00210036082000DA002100C9
:101D660035082000D900210034082000D800893128
:101D7600BE218C3120005B082100A30020005A08F8
:101D86002100A200200059082100A10020005808C7
:101D96002100A0009C31D8248C3121002308D500D5
:101DA6002208D4002108D3002008D2005508F300E9
:101DB6005408F2005308F1005208F00001309D313A
:101DC6006D258C3173082100CD007208CC00710896
:101DD600CB007008CA0051082000DB002100500823
:101DE6002000DA0021004F082000D90021004E080B
:101DF6002000D80021004D082000A70021004C0833
:101E06002000A60021004B082000A50021004A085A
:101E16002000A4001430840098308500003F210083
:101E2600B000013FB100023FB200033FB3003308E8
:101E36002000A300210032082000A2002100310862
:101E46002000A100210030082000A0009531952532
:101E56008C3120002308D7002208D6002108D5009F
:101E66002008D4009C31CA248C3120005708DF009A
:101E76005608DE005508DD005408DC008931BE2115
:101E86008C3120005B082100C90020005A0821007F
:101E9600C800200059082100C7002000580821006A
:101EA600C6004D082000A70021004C082000A6000F
:101EB60021004B082000A50021004A082000A400AC
:101EC6001030840098308500003F2100B000013FAB
:101ED600B100023FB200033FB30033082000A30065
:101EE600210032082000A200210031082000A100B4
:101EF600210030082000A000953195258C31200066
:101F06002308D7002208D6002108D5002008D400CF
:101F16009C31CA248C3120005708DB005608DA00B1
:101F26005508D9005408D800210049082000DF00D0
:101F3600210048082000DE00210047082000DD00BF
:101F4600210046082000DC008931BE218C312000AA
:101F56005B082100BB0020005A082100BA002000BF
:101F660059082100B900200058082100B80040088F
:101F760041040319BF2FC02FEE2F3B082000D700C6
:101F860021003A082000D600210039082000D5009B
:101F9600210038082000D4009C31CA248C3121004D
:101FA6002F0886000130870020005408C03F5508DE
:101FB600C13F5608C23F5708C33F21005209B0002F
:101FC6005309B100B00A0319B10A3008AB00310851
:101FD600AC00FF2FFF2F2F0886000130870038083E
:101FE600C03F3908C13F3A08C23F3B08C33F5308C8
:0A1FF600AC005208AB00FF2F0800FA
:10201800F401F5010F28701C1228132817287208DC
:10202800F4077308F53D0130F235F30D890B1828D4
:102038000130F136F00C890B1D2870087104031D5E
:10204800262827280F2828287508F1007408F0008A
:102058002D280800003021003405BC00003035056B
:10206800BD0080303605BE007F303705BF003F0811
:102078003E043D043C04031D422843284B280030FD
:10208800B7000030B6000030B5000030B4000030B2
:102098003805BC0000303905BD0080303A05BE0067
:1020A8007F303B05BF003F083E043D043C04031D50
:1020B8005E285F2867280030BB000030BA00003077
:1020C800B9000030B8003B083706031D75283A08E8
:1020D8003606031D752839083506031D7528380886
:1020E80034060319782879287B2803107E280314DE
:1020F8007E287E28080021006D08B3006C08B20015
:102108006B08B1006A08B0002308B3002208B200C7
:102118002108B1002008B0003008A4003108A5004B
:102128003208A6003308A7001730A736A60CA50C5E
:10213800A40C890B9928FF302405A8000030250538
:10214800A9002808813EAE00FF30293DAF002F08C6
:10215800803AA40080302402031DB42817302E02D0
:10216800031CB728B828B92866292100AF1BBD2849
:10217800BE281C29FF30A400FF30A5007F30A60030
:102188000030A7002E0ACC28A737A60CA50CA40C53
:10219800890BC8282708AD002608AC002508AB0025
:1021A8002408AA0030082A05A40031082B05A50038
:1021B80032082C05A60033082D05A7002708260499
:1021C80025042404031DE928EA28EB286629300899
:1021D800A4003108A5003208A6003308A7001F3064
:1021E800A736A60CA50CA40C890BF42827082604EE
:1021F80025042404031D012902290B292A08B007F4
:102208002B08B13D2C08B23D2D08B33D0B292A09F6
:10221800A4002B09A5002C09A6002D09A700240855
:10222800B0052508B1052608B2052708B3055D29BC
:102238003008A4003108A5003208A6003308A7001A
:102248001F30A736A60CA50CA40C890B2529270836
:102258002604250424040319322933293C29803013
:10226800B3000030B2000030B1000030B0005D298A
:102278003008A4003108A5003208A6003308A700DA
:102288000130A435A50DA60DA70D890B45292708F2
:102298002604250424040319522953295D293F30B3
:1022A800B3008030B2000030B1000030B0005D29CA
:1022B8005D293308A3003208A2003108A1003008C4
:1022C800A00066290800210023082000A30021009F
:1022D80022082000A200210021082000A1002100DE
:1022E80020082000A000210023082000A7002100CA
:1022F80022082000A600210021082000A5002100B6
:1023080020082000A400953195259131200023084C
:102318002100C300200022082100C200200021085B
:102328002100C100200020082100C000430820002F
:10233800A300210042082000A2002100410820003B
:10234800A100210040082000A0002100430820002F
:10235800A700210042082000A60021004108200013
:10236800A500210040082000A40095319525913151
:10237800200023082100BF00200022082100BE0001
:10238800200021082100BD00200020082100BC00F9
:102398002830840098308500003FA400013FA50044
:1023A800023FA600033FA70027082000DB0021000A
:1023B80026082000DA00210025082000D900210085
:1023C80024082000D8002430840098308500003F7D
:1023D8002100A800013FA900023FAA00033FAB006B
:1023E8002B082000A30021002A082000A2002100B9
:1023F80029082000A100210028082000A0002100B1
:1024080043082000A700210042082000A600210060
:1024180041082000A500210040082000A4009531B3
:102428009525913120002308DF002208DE002108CD
:10243800DD002008DC008931BE21913120005B08D5
:102448002100AF0020005A082100AE0020005908E2
:102458002100AD00200058082100AC0043082000EE
:10246800A300210042082000A2002100410820000A
:10247800A100210040082000A00021003F08200002
:10248800A70021003E082000A60021003D082000EA
:10249800A50021003C082000A40095319525913124
:1024A800200023082100B300200022082100B200E8
:1024B800200021082100B100200020082100B000E0
:1024C8003F302000DB008030DA000030D9000030D7
:1024D800D8003030840098308500003F2100A400E7
:1024E800013FA500023FA600033FA70027082000E0
:1024F800A300210026082000A200210025082000B2
:10250800A100210024082000A00021004308200089
:10251800A700210042082000A60021004108200051
:10252800A500210040082000A4009531952591318F
:1025380020002308DF002208DE002108DD00200833
:10254800DC008931BE21913120005B082100B700F1
:1025580020005A082100B600200059082100B500C3
:10256800200058082100B4002C30840098308500E1
:10257800003FA400013FA500023FA600033FA700BB
:1025880027082000A300210026082000A20021001F
:1025980025082000A100210024082000A000210017
:1025A8003F082000A70021003E082000A6002100C7
:1025B8003D082000A50021003C082000A40095311A
:1025C8009525913120002308DB002208DA00210834
:1025D800D9002008D800210037082000DF0021009A
:1025E80036082000DE00210035082000DD0021002B
:1025F80034082000DC008931BE21913120005B08BD
:102608002100BB0020005A082100BA002000590808
:102618002100B900200058082100B8002F08200028
:10262800A30021002E082000A20021002D08200070
:10263800A10021002C082000A00021003308200060
:10264800A700210032082000A60021003108200040
:10265800A500210030082000A4009531952591316E
:1026680020002308DB002208DA002108D90020080E
:10267800D80021003B082000DF0021003A08200094
:10268800DE00210039082000DD0021003808200084
:10269800DC008931BE21913120005B082100A300B4
:1026A80020005A082100A200200059082100A1009A
:1026B800200058082100A000612B080021002308F1
:1026C8002000A300210022082000A20021002108E8
:1026D8002000A100210020082000A00021002308DC
:1026E8002000A700210022082000A60021002108C0
:1026F8002000A500210020082000A4009531952580
:102708009331200023082100C7002000220821005F
:10271800C600200021082100C50020002008210053
:10272800C40047082000A300210046082000A2009A
:10273800210045082000A100210044082000A00035
:10274800210047082000A700210046082000A60015
:10275800210045082000A500210044082000A4000D
:10276800953195259331200023082100B3002000DE
:1027780022082100B200200021082100B100200019
:1027880020082100B0000430840098308500003F04
:10279800A400013FA500023FA600033FA7002708A9
:1027A8002000DB00210026082000DA00210025088F
:1027B8002000D900210024082000D800003084001F
:1027C80098308500003F2100A800013FA900023F82
:1027D800AA00033FAB002B082000A30021002A0811
:1027E8002000A200210029082000A10021002808BB
:1027F8002000A000210047082000A700210046086B
:102808002000A600210045082000A500210044085A
:102818002000A40095319525933120002308DF007E
:102828002208DE002108DD002008DC008931BE21F5
:10283800933120005B082100AF0020005A082100D6
:10284800AE00200059082100AD00200058082100E2
:10285800AC0023082000A300210022082000A200C9
:10286800210021082000A100210020082000A0004C
:10287800210047082000A700210046082000A600E4
:10288800210045082000A500210044082000A400DC
:10289800953195259331200023082100C30020009D
:1028A80022082100C200200021082100C1002000C8
:1028B80020082100C00033082000A30021003208AE
:1028C8002000A200210031082000A10021003008CA
:1028D8002000A000210043082000A7002100420892
:1028E8002000A600210041082000A5002100400882
:1028F8002000A4009531952593312000230821005C
:10290800B700200022082100B6002000210821007D
:10291800B500200020082100B4000C308400983055
:102928008500003FA400013FA500023FA600033F29
:10293800A70027082000DB00210026082000DA0075
:10294800210025082000D900210024082000D800F3
:102958000830840098308500003F2100A800013F1E
:10296800A900023FAA00033FAB002B082000A300E8
:1029780021002A082000A200210029082000A10027
:10298800210028082000A000210047082000A700F7
:10299800210046082000A600210045082000A500C7
:1029A800210044082000A40095319525933120008A
:1029B8002308DF002208DE002108DD002008DC00F3
:1029C8008931BE21933120005B082100BB00200023
:1029D8005A082100BA00200059082100B900200037
:1029E80058082100B80023082000DB002100220835
:1029F8002000DA00210021082000D9002100200849
:102A08002000D800210043082000A300210042082C
:102A18002000A200210041082000A1002100400858
:102A28002000A00021003B082000A70021003A0850
:102A38002000A600210039082000A5002100380840
:102A48002000A40095319525933120002308DF004C
:102A58002208DE002108DD002008DC008931BE21C3
:102A6800933120005B082100BF0020005A08210094
:102A7800BE00200059082100BD0020005808210090
:102A8800BC002F082000A30021002E082000A2006F
:102A980021002D082000A10021002C082000A00002
:102AA800210037082000A700210036082000A600D2
:102AB800210035082000A500210034082000A400CA
:102AC80095319525933120002308DB002208DA0090
:102AD8002108D9002008D80021003F082000DF0085
:102AE80021003E082000DE0021003D082000DD0016
:102AF80021003C082000DC008931BE2193312000F0
:102B08005B082100A30020005A082100A200200031
:102B180059082100A100200058082100A000942D88
:102B28000800200023088039A8002808AD002335B4
:102B3800A8002808B300A21FA22DA32DA52D331489
:102B4800A52D33080319A92DAA2DBA2D330A031D63
:102B5800AE2DAF2DB82D0030A3000030A2000030FC
:102B6800A1000030A000B82DA217C32D0030A3008B
:102B78000030A2000030A1000030A000C32D2708BB
:102B88008039A8002808AD062735A8002808B20013
:102B9800A61FCF2DD02DD22D3214D22D32080319D5
:102BA800D62DD72DE72D320A031DDB2DDC2DE52D83
:102BB8000030A7000030A6000030A5000030A400B7
:102BC800E52DA617F02D0030A7000030A600003034
:102BD800A5000030A400F02D32080319F42DF52DBE
:102BE800FB2D3308031DF92DFA2D052EFB2D003082
:102BF800A3000030A2000030A1000030A000FF2F89
:102C0800FF2F2008A8002808F000260880311F2080
:102C1800953171082000B9007008B8003808A8007C
:102C2800A901AA01AB012B08B1002A08B0002908A4
:102C3800AF002808AE003908A800A901AA01AB0115
:102C48002B08B7002A08B6002908B5002808B400E0
:102C58002108A8002808F000250880311F20953198
:102C680071082000B9007008B8003808A800A90148
:102C7800AA01AB012808AE072908AF3D2A08B03DD4
:102C88002B08B13D3908A800A901AA01AB01280801
:102C9800B4072908B53D2A08B63D2B08B73D2208D8
:102CA800A8002808F000240880311F2095317108F9
:102CB8002000B9007008B8003808A800A901AA01C6
:102CC800AB012808AE072908AF3D2A08B03D2B08FC
:102CD800B13D3908A800A901AA01AB012808B40729
:102CE8002908B53D2A08B63D2B08B73D0830AE3552
:102CF800AF0DB00DB10D890B7B2E2108A800280857
:102D0800F000240880311F20953171082000B90097
:102D18007008B8003808AE073908AF3D0030B03D3C
:102D2800B13D2008A8002808F000250880311F20A0
:102D3800953171082000B9007008B8003808AE074E
:102D48003908AF3D0030B03DB13D0830AE35AF0D6C
:102D5800B00DB10D890BAA2E2008A8002808F00094
:102D6800240880311F20953171082000B9007008AF
:102D7800B8003808AE073908AF3D0030B03DB13D66
:102D88002108A8002808F000260880311F20953166
:102D980071082000B9007008B8003808B40739086D
:102DA800B53D0030B63DB73D2208A8002808F00020
:102DB800250880311F20953171082000B90070085E
:102DC800B8003808B4073908B53D0030B63DB73DFE
:102DD8002208A8002808F000260880311F20953115
:102DE80071082000B9007008B8003808A800390830
:102DF800A900AA01AB010830A835A90DAA0DAB0D91
:102E0800890B002F2808B4072908B53D2A08B63DC4
:102E18002B08B73D2E08A8002F08A9003008AA00E3
:102E28003108AB001830AB36AA0CA90CA80C890BDA
:102E3800172F2808B4072908B53D2A08B63D2B08DE
:102E4800B73D0830AE35AF0DB00DB10D890B262F4B
:102E580033083207A800A901A90D2808823EB80046
:102E6800FF30293DB900512F0130B435B50DB60DED
:102E7800B70D890B392FB11F422F432F452F34141B
:102E8800452F0130AE35AF0DB00DB10D890B462F72
:102E9800FF30B807FF30B93D512FB61F542F552FBB
:102EA800382F562FB201B11F5A2F5B2F7B2FFF30BF
:102EB8002E05A800FF302F05A900FF303005AA0015
:102EC8007F303105AB002B082A0429042804031994
:102ED8006E2F6F2F722FB201B20A7B2F341C752F01
:102EE800762F7B2FB201B20A7B2F7B2F7B2F3208E4
:102EF80003197F2F802FAA2F0130B4070030B53D6A
:102F08000030B63D0030B73D371C8B2F8C2FAA2FD1
:102F18003408A8003508A9003608AA003708AB000D
:102F28000130AC00AB37AA0CA90CA80CAC0B962F3F
:102F38002B08B7002A08B6002908B5002808B400ED
:102F48000130B8070030B93DAA2FAA2F3908803AB6
:102F5800A80080302802031DB32FFF303802031C5D
:102F6800B62FB72FC12F7F302000B7008030B600B2
:102F78000030B5000030B400F22F20003908803A44
:102F8800A80080302802031DCB2F01303802031817
:102F9800CE2FCF2FDA2F00302000B7000030B60038
:102FA8000030B5000030B400AD01F22F2000380821
:102FB800A8002808B300FF30B405FF30B5057F30FE
:102FC800B6050030B705331CEA2FEB2FED2FB617E7
:102FD800ED2F3336A8002808B700F22F2D08A800D7
:102FE8002808B7043708A3003608A2003508A1004E
:102FF8003408A000FF2F08003C346C3436343634D3
:10300800CF3407345034B9348434883408343C34E9
:10301800AB34AA342A34BE34A334853488343234E9
:10302800DA340F34C9343F348334F93422343F342A
:103038000034003400343F340034003440344B341E
:1030480017349A34CC3437343F340434B634BA3471
:103058009F34AA342A343D34003400340034BF3459
:10306800DB340F34C9344034E434CB349634403440
:10307800DB340F3449344034DB340F34C9343F3443
:10399400200057085604550454040319D22CD32C80
:1039A400D62C8030D706D62CD72C0800210020082E
:1039B400A4002108A5002208A6002308A7000310DC
:1039C400260D270DA8002808AA002A08031DEB2CA1
:1039D400EC2CF62C0030A3000030A2000030A10033
:1039E4000030A0006C2D6C2D2008A4002108A50037
:1039F4002208A6002308A7001F30A736A60CA50C92
:103A0400A40C890BFF2C2408A8002808A900A217DD
:103A1400FF30A005FF30A105FF30A2050030A3054B
:103A24009630AA02AA1F172D182D3B2D2A08803A7A
:103A3400973E03181E2D1F2D2A2D0030A3000030A1
:103A4400A2000030A1000030A0006C2D6C2D2A2DA6
:103A54000130A336A20CA10CA00C890B2B2D013034
:103A6400A4002408AA07031D382D392D2A2D5C2D06
:103A74005C2D20302A02031C402D412D552D003091
:103A8400A3000030A2000030A1000030A0006C2D83
:103A94006C2D552D0130A035A10DA20DA30D890B60
:103AA4004D2D0130AA022A08031D592D5A2D4C2DE3
:103AB4005C2D5C2D29080319602D612D6C2DA00946
:103AC400A109A209A309A00A0319A10A0319A20AB8
:103AD4000319A30A0800F80078080319722D732D3E
:103AE400872DF31F762D772D872D7009FA00710924
:103AF400FB007209FC007309FD00FA0A0319FB0AB2
:103B04000319FC0A0319FD0A8F2D7308FD007208BE
:103B1400FC007108FB007008FA0073087204710459
:103B24007004031D962D972DA12D0030F300003055
:103B3400F2000030F1000030F000202E202E9630EC
:103B4400F4007408F900B22D0130F4007408F90788
:103B54000130FD36FC0CFB0CFA0C890BAB2DB22D9D
:103B6400FE307D05031DB72DB82DA62DCD2DCD2DF1
:103B74000130F4007408F9070130FA070030FB3D06
:103B84000030FC3D0030FD3D0130FD36FC0CFB0CEB
:103B9400FA0C890BC72DFF307D05031DD22DD32DC3
:103BA400BA2DDF2DDF2D0130F9020130FA35FB0D7E
:103BB400FC0DFD0D890BD82DDF2DFC1BE22DE32D13
:103BC400EA2D023079020318E82DE92DD52DEA2DCE
:103BD4007918ED2DEE2DF62DFF30FA05FF30FB059B
:103BE4007F30FC05FF30FD050310F90C7908F40063
:103BF400F501F601F7011830F435F50DF60DF70D62
:103C0400890BFE2D7408FA047508FB047608FC047D
:103C14007708FD0478080319102E112E172EF31FB0
:103C2400142E152E172EFD17172E7D08F3007C0871
:103C3400F2007B08F1007A08F000202E0800200032
:103C440041088039C2004208CB004135C200420815
:103C5400D200C01F2E2E2F2E312E5214312E520878
:103C64000319352E362E472E520A031D3A2E3B2EAB
:103C7400442E0030C1000030C0000030BF000030CE
:103C8400BE00442EC017C101502E0030C1000030C8
:103C9400C0000030BF000030BE00502E3D08803907
:103CA400C2004208CB063D35C2004208D300BC1F07
:103CB4005C2E5D2E5F2E53145F2E53080319632E62
:103CC400642E752E530A031D682E692E722E003041
:103CD400BD000030BC000030BB000030BA00722EC2
:103CE400BC17BD017D2E0030BD000030BC0000308B
:103CF400BB000030BA003D083C043B043A04031DF9
:103D0400842E852E9F2E0030C1000030C00000306C
:103D1400BF000030BE008030C0047F30C1044B08B7
:103D2400C2004208C1044108BD004008BC003F086D
:103D3400BB003E08BA00FF2FFF2F5208031DA32E1D
:103D4400A42EB62E0030C1000030C0000030BF00E9
:103D54000030BE004108BD004008BC003F08BB0065
:103D64003E08BA00FF2FFF2F5308C200C301C20947
:103D7400C309C20A0319C30A52084207C40043080C
:103D84000318430AC50044087F3ECC000030453D7B
:103D9400CD004108CA004008C9003F08C8003E08D9
:103DA400C7000030C1000030C0000030BF00003048
:103DB400BE000030D1000030D0000030CF00003011
:103DC400CE00D301272F53080319E92EEA2E062F1C
:103DD4000130C735C80DC90DCA0D890BEB2E013052
:103DE400BE35BF0DC00DC10D890BF22ED11FFB2EA8
:103DF400FC2EFE2E3E14FE2E0130CE35CF0DD00DFE
:103E0400D10D890BFF2E062F3D084A02031D142FE6
:103E14003C084902031D142F3B084802031D142FBC
:103E24003A084702031C172F182F222F51173A085C
:103E3400C7023B08C83B3C08C93B3D08CA3B222F8C
:103E44000130C2004208D307272F1A305302031C43
:103E54002C2F2D2FE52E2E2F4A0849044804470401
:103E64000319352F362F522F4E14522F522F013053
:103E7400BE35BF0DC00DC10D890B3A2FD11F432F85
:103E8400442F462F3E14462F0130CE35CF0DD00D92
:103E9400D10D890B472FFF30CC07FF30CD3D522F7A
:103EA400C01F552F562F392F572FD301D11F5B2FEA
:103EB4005C2F7C2FFF304E05C200FF304F05C3003E
:103EC400FF305005C4007F305105C5004508440447
:103ED4004304420403196F2F702F732FD301D30AA5
:103EE4007C2F3E1C762F772F7C2FD301D30A7C2F77
:103EF4007C2F7C2F53080319802F812FAB2F013087
:103F0400BE070030BF3D0030C03D0030C13D411C04
:103F14008C2F8D2FAB2F3E08C2003F08C3004008F2
:103F2400C4004108C5000130C600C537C40CC30C29
:103F3400C20CC60B972F4508C1004408C0004308B3
:103F4400BF004208BE000130CC070030CD3DAB2F8E
:103F5400AB2F4D08803AC20080304202031DB42FBB
:103F6400FF304C02031CB72FB82FC52FFF302000A1
:103F7400CC000030CD000030C1000030C000003063
:103F8400BF000030BE0020004D08803AC2008030DF
:103F94004202031DCF2F01304C020318D22FD32F1E
:103FA400DF2F2000CC01CD010030C1000030C00063
:103FB4000030BF000030BE00CB0120004C08C2001E
:103FC4004208D200521CE72FE82FEA2FC017EE2F29
:103FD4007F30C2004208C0055236C2004208C10008
:103FE4004B08C2004208C1044108BD004008BC009F
:0C3FF4003F08BB003E08BA00FF2F080089
:020000040001F9
:0A000E008C3FFF3F9F3FFF3FFF3F85
:00000001FF
