:020000040000FA
:08000000803102288731EB2F4B
:10000A00F800F401F5017008F200F3017208F60035
:10001A007308F7001028781C132814281828760863
:10002A00F4077708F53D0130F635F70D890B1928E5
:10003A000310F80C7808031D2328242810282528E3
:10004A007508F1007408F0002A2808000030220020
:10005A00D8009830D900DF01E0016008803A210019
:10006A00E40080306402031D3D28373022005F021D
:10007A00031C402841284328DB2ADB2AB43022000B
:10008A00E5000030E6006608803A2100E40080308E
:10009A006402031D53280130220065020318562802
:1000AA0057285928C62AC62A43302000BD003430B2
:1000BA00BC000030BB000030BA004030A300493019
:1000CA00A2000F30A100DB30A00022006508F0007A
:1000DA006608F100890D893B8909F200F3000130B5
:1000EA009E318826803173082000A7007208A60076
:1000FA007108A5007008A40095319525803120006B
:10010A002308C1002208C0002108BF002008BE0041
:10011A0088310D20803120003D082200DE002000B9
:10012A003C082200DD0020003B082200DC00200001
:10013A003A082200DB005E082100C10022005D08A7
:10014A002100C00022005C082100BF0022005B08D9
:10015A002100BE008231DC228031210041082200C8
:10016A00D300210040082200D20021003F082200CB
:10017A00D10021003E082200D00043302000BD00FB
:10018A003430BC000030BB000030BA004030A3005D
:10019A004930A2000F30A100DB30A000220065091F
:1001AA002100E400220066092100E500E40A03199F
:1001BA00E50A64085A3EF0000030653DF100F2019C
:1001CA00F11BF2037208F30001309E318826803158
:1001DA0073082000A7007208A6007108A50070081D
:1001EA00A40095319525803120002308C1002208FA
:1001FA00C0002108BF002008BE0088310D208031D0
:10020A0020003D082200DE0020003C082200DD001C
:10021A0020003B082200DC0020003A082200DB0014
:10022A005E082100C10022005D082100C0002200F2
:10023A005C082100BF0022005B082100BE00823159
:10024A00DC228031210041082200D7002100400829
:10025A002200D60021003F082200D50021003E08D6
:10026A002200D400DA01E101E2016208803A2100A9
:10027A00E40080306402031D452914302200610223
:10028A00031C482949294B29842A842A2200E3018C
:10029A00E4016408803A2100E40080306402031D0E
:1002AA005929143022006302031C5C295D295F2945
:1002BA006F2A6F2A22006208F1006108F0001430E8
:1002CA00F2000030F3009B31722380312200630870
:1002DA0070072100E40022006408713D2100E50056
:1002EA0022005808210064078400220059082100CE
:1002FA00653D85001200013A031D842985295A2A81
:10030A00220057082000A300220056082000A2005D
:10031A00220055082000A100220054082000A00055
:10032A0022006308F0006408F100890D893B8909FD
:10033A00F200F30001309E318826803173082000D4
:10034A00A7007208A6007108A5007008A4009531DC
:10035A009525803120002308C1002208C000210809
:10036A00BF002008BE00220053082000A30022007C
:10037A0052082000A200220051082000A1002200F9
:10038A0050082000A00022006108F0006208F10075
:10039A00890D893B8909F200F30001309E318826D4
:1003AA00803173082000A7007208A6007108A50012
:1003BA007008A40095319525803120002308C500D6
:1003CA002208C4002108C3002008C2008931EC2198
:1003DA008031200041082200CF002000400822007E
:1003EA00CE0020003F082200CD0020003E08220057
:1003FA00CC004F082000C50022004E082000C4008F
:10040A0022004D082000C30022004C082000C20030
:10041A004130C100D830C0000030BF000030BE00FB
:10042A008931EC21803120004108D9004008D800E8
:10043A003F08D7003E08D6009031E82080312000DE
:10044A0059082100A300200058082100A20020001A
:10045A0057082100A100200056082100A000220010
:10046A005F08F0006008F100890D893B8909F200F4
:10047A00F30001309E318826803173082100A700DD
:10048A007208A6007108A5007008A4009D31902585
:10049A008031031C512A522A5A2A01302100E400D1
:1004AA0064082200DA075A2A5A2A01302200E3078E
:1004BA000030E43D6408803A2100E40080306402A0
:1004CA00031D6A2A143022006302031C6D2A6E2A55
:1004DA005F296F2A01302200E1070030E23D6208FD
:1004EA00803A2100E40080306402031D7F2A143020
:1004FA0022006102031C822A832A4B29842A903013
:10050A002000D0009930D10022005A082100E400CE
:10051A00E50164082000D200210065082000D3000C
:10052A009B315A238031220065036604031D9E2AEB
:10053A009F2AA82AD8302000D0009930D1009B31B8
:10054A005A238031B12A92302000D0009930D1004C
:10055A009B315A238031B12AFF302200E507FF3050
:10056A00E63D6608803A2100E40080306402031DFB
:10057A00C12A0130220065020318C42AC52A592853
:10058A00C62A01302200DF070030E03D6008803AC9
:10059A002100E40080306402031DD62A373022008D
:1005AA005F02031CD92ADA2A4328DB2A0800210021
:1005BA004108CD004008CC003F08CB003E08CA00E5
:1005CA004D08E3004C08E2004B08E1004A08E0004D
:1005DA00EE2A6008C2006108C3006208C40063080A
:1005EA00C5001F30C536C40CC30CC20C890BF72AD0
:1005FA004308D7004208D600FF30E005FF30E10586
:10060A00FF30E2057F30E305DB3060020F30613BEB
:10061A004930623B3F30633B0318142B152B4B2B9D
:10062A00803062023930633B03181C2B1D2B272BA9
:10063A003F30C1008030C0000030BF000030BE0033
:10064A00EA2FEA2F41082000D900210040082000A3
:10065A00D80021003F082000D70021003E082000D2
:10066A00D6009131D7218231200059082100C100DA
:10067A00200058082100C000200057082100BF00B0
:10068A00200056082100BE00EA2FEA2FD23060026D
:10069A005330613B7B30623B4030633B0318562B3F
:1006AA00572BFC2CE4306002CB30613B1630623BA6
:1006BA004030633B031C622B632B232C56085704E0
:1006CA00031D682B692BB42B41082000C1002100AF
:1006DA0040082000C00021003F082000BF00210080
:1006EA003E082000BE00D030840099308500003FCB
:1006FA002100C200013FC300023FC400033FC500FE
:10070A0045082000BD00210044082000BC0021004B
:10071A0043082000BB00210042082000BA009B3198
:10072A004C23823120003D08C5003C08C4003B0828
:10073A00C3003A08C2008931EC2182312000410805
:10074A002100D100200040082100D00020003F08ED
:10075A002100CF0020003E082100CE00F22BD0302D
:10076A00840099308500003FC200013FC300023F68
:10077A00C400033FC50045082000C1002100440809
:10078A002000C000210043082000BF0021004208C9
:10079A002000BE00210041082000C50021004008B9
:1007AA002000C40021003F082000C30021003E08A9
:1007BA002000C2008931EC21823120004108210049
:1007CA00D100200040082100D00020003F0821006D
:1007DA00CF0020003E082100CE0051082000D90099
:1007EA00210050082000D80021004F082000D7001F
:1007FA0021004E082000D6009131D72182312000F5
:10080A005908BD005808BC005708BB005608BA0072
:10081A009B314C23823120003D082100C100200079
:10082A003C082100C00020003B082100BF00200036
:10083A003A082100BE00EA2FEA2FFC2C560857047A
:10084A000319282C292C8C2CD4308400993085004B
:10085A00003FC200013FC300023FC400033FC5007E
:10086A0045082000C100210044082000C0002100E2
:10087A0043082000BF00210042082000BE002100DA
:10088A0041082000C500210040082000C4002100C2
:10089A003F082000C30021003E082000C200893121
:1008AA00EC218231200041082100DB0020004008B1
:1008BA002100DA0020003F082100D90020003E086C
:1008CA002100D8005B082000D90021005A08200026
:1008DA00D800210059082000D7002100580820001C
:1008EA00D6009331A0238231200059082100C1008B
:1008FA00200058082100C000200057082100BF002E
:10090A00200056082100BE00EA2FEA2FFC2CD43022
:10091A00840099308500003FC200013FC300023FB6
:10092A00C400033FC50045082000C1002100440857
:10093A002000C000210043082000BF002100420817
:10094A002000BE00210041082000BD00210040080F
:10095A002000BC0021003F082000BB0021003E0807
:10096A002000BA009B314C23823120003D08C5008B
:10097A003C08C4003B08C3003A08C2008931EC2194
:10098A008231200041082100DB00200040082100BC
:10099A00DA0020003F082100D90020003E0821008B
:1009AA00D8005B082000D90021005A082000D8008E
:1009BA00210059082000D700210058082000D6003D
:1009CA009331A0238231200059082100C100200060
:1009DA0058082100C000200057082100BF0020004D
:1009EA0056082100BE00EA2FEA2FFC2CFC2CD63038
:1009FA0060023130613BE230623B4030633B0318B6
:100A0A00072D082DAD2EE0306002ED30613BAF308E
:100A1A00623B4030633B031C132D142DC82D56082E
:100A2A005704031D192D1A2D652D41082000C100F8
:100A3A00210040082000C00021003F082000BF001C
:100A4A0021003E082000BE00C8308400993085008D
:100A5A00003F2100C200013FC300023FC400033F20
:100A6A00C50045082000BD00210044082000BC0044
:100A7A00210043082000BB00210042082000BA00E0
:100A8A009B314C23823120003D08C5003C08C4003C
:100A9A003B08C3003A08C2008931EC2182312000A8
:100AAA0041082100D500200040082100D400200080
:100ABA003F082100D30020003E082100D200A32DC8
:100ACA00C830840099308500003FC200013FC3004E
:100ADA00023FC400033FC50045082000C1002100B1
:100AEA0044082000C000210043082000BF00210064
:100AFA0042082000BE00210041082000C500210054
:100B0A0040082000C40021003F082000C300210043
:100B1A003E082000C2008931EC21823120004108C0
:100B2A002100D500200040082100D40020003F0801
:100B3A002100D30020003E082100D20055082000E1
:100B4A00D900210054082000D800210053082000B1
:100B5A00D700210052082000D6009131D7218231D6
:100B6A00200059082100C100200058082100C000B7
:100B7A00200057082100BF00200056082100BE00AF
:100B8A00EA2FEA2FAD2E560857040319CD2DCE2D84
:100B9A003D2E41082000C500210040082000C40065
:100BAA0021003F082000C30021003E082000C200A7
:100BBA00CC30840099308500003F2100C200013FFB
:100BCA00C300023FC400033FC50045082000C1001E
:100BDA00210044082000C000210043082000BF0073
:100BEA00210042082000BE008931EC218231200018
:100BFA004108BD004008BC003F08BB003E08BA00DF
:100C0A009B314C23823120003D082100DB0020006B
:100C1A003C082100DA0020003B082100D90020000E
:100C2A003A082100D8005B082000D90021005A08A0
:100C3A002000D800210059082000D70021005808B8
:100C4A002000D6009331A0238231200059082100C8
:100C5A00C100200058082100C000200057082100C8
:100C6A00BF00200056082100BE00EA2FEA2FAD2E51
:100C7A0041082000C100210040082000C0002100D6
:100C8A003F082000BF0021003E082000BE00CC30F3
:100C9A00840099308500003F2100C200013FC30053
:100CAA00023FC400033FC50045082000BD002100E3
:100CBA0044082000BC00210043082000BB0021009A
:100CCA0042082000BA009B314C23823120003D08A3
:100CDA00C5003C08C4003B08C3003A08C200893179
:100CEA00EC218231200041082100DB00200040086D
:100CFA002100DA0020003F082100D90020003E0828
:100D0A002100D8005B082000D90021005A082000E1
:100D1A00D800210059082000D700210058082000D7
:100D2A00D6009331A0238231200059082100C10046
:100D3A00200058082100C000200057082100BF00E9
:100D4A00200056082100BE00EA2FEA2FAD2EAD2E54
:100D5A00803062027F30633B031CB42EB52EF52E21
:100D6A0041082000C100210040082000C0002100E5
:100D7A003F082000BF0021003E082000BE002100DD
:100D8A0041082000BD00210040082000BC002100CD
:100D9A003F082000BB0021003E082000BA009B311A
:100DAA004C23823120003D08C5003C08C4003B08A2
:100DBA00C3003A08C2008931EC218231200041087F
:100DCA002100C100200040082100C00020003F0887
:100DDA002100BF0020003E082100BE00EA2FEA2FB2
:100DEA0041082000E400210040082000E30021001F
:100DFA003F082000E20021003E082000E100DC302C
:100E0A002100C20042082000E5008C315E248231B4
:100E1A00200061082100C600200062082100C700E6
:100E2A00890D893B8909C800C900C42F5F082000C1
:100E3A00D90021005E082000D80021005D082000AA
:100E4A00D70021005C082000D6009131D7218231D9
:100E5A00200059082100C100200058082100C000C4
:100E6A00200057082100BF00200056082100BE00BC
:100E7A00EA2FEA2F5F082000BD0021005E0820004B
:100E8A00BC0021005D082000BB0021005C08200096
:100E9A00BA009B314C23823120003D08D9003C081E
:100EAA00D8003B08D7003A08D6009331A0238231F4
:100EBA00200059082100C100200058082100C00064
:100ECA00200057082100BF00200056082100BE005C
:100EDA00EA2FEA2F5F082000D90021005E082000CF
:100EEA00D80021005D082000D70021005C082000FE
:100EFA00D6009131D721823120005908BD00580807
:100F0A00BC005708BB005608BA009B314C238231FB
:100F1A0020003D082100C10020003C082100C0003B
:100F2A0020003B082100BF0020003A082100BE0033
:100F3A00EA2FEA2F5F082000D90021005E0820006E
:100F4A00D80021005D082000D70021005C0820009D
:100F5A00D6009331A0238231200059082100C10014
:100F6A00200058082100C000200057082100BF00B7
:100F7A00200056082100BE00EA2FEA2FEA2F03308C
:100F8A004605C20000304705C30000304805C400CA
:100F9A0000304905C5004508003A0319E52F9F2F7F
:100FAA004308003A0319DA2F9F2F4208003A03191F
:100FBA001B2F013A03193F2F033A03196F2F9F2F53
:100FCA004408003A0319D52F9F2F08002000EE018C
:100FDA00EF012100E701E801E901EA01EB01EC0177
:100FEA0020308400013085002C3088310020873180
:100FFA00200090310628640080010131890B012804
:10100A0000340F3020009100960196170C28080032
:10101A00200041088039C2004208CB004135C20095
:10102A004208D200C01F1A281B281D2852141D2846
:10103A0052080319212822283328520A031D262878
:10104A00272830280030C1000030C0000030BF001F
:10105A000030BE003028C017C1013C280030C10052
:10106A000030C0000030BF000030BE003C283D0800
:10107A008039C2004208CB063D35C2004208D3007F
:10108A00BC1F482849284B2853144B2853080319D6
:10109A004F2850286128530A031D542855285E28D2
:1010AA000030BD000030BC000030BB000030BA0088
:1010BA005E28BC17BD0169280030BD000030BC00A5
:1010CA000030BB000030BA003D083C043B043A043F
:1010DA00031D702871288B280030C1000030C00021
:1010EA000030BF000030BE008030C0047F30C10431
:1010FA004B08C2004208C1044108BD004008BC00B8
:10110A003F08BB003E08BA00EB29EB295208031D31
:10111A008F289028A2280030C1000030C00000307B
:10112A00BF000030BE004108BD004008BC003F08B7
:10113A00BB003E08BA00EB29EB295308C200C301E1
:10114A00C209C309C20A0319C30A52084207C400E2
:10115A0043080318430AC50044087F3ECC00003008
:10116A00453DCD004108CA004008C9003F08C800F3
:10117A003E08C7000030C1000030C0000030BF0088
:10118A000030BE000030D1000030D0000030CF0067
:10119A000030CE00D301132953080319D528D628C5
:1011AA00F2280130C735C80DC90DCA0D890BD728D9
:1011BA000130BE35BF0DC00DC10D890BDE28D11F10
:1011CA00E728E828EA283E14EA280130CE35CF0D70
:1011DA00D00DD10D890BEB28F2283D084A02031DD8
:1011EA0000293C084902031D00293B084802031D47
:1011FA0000293A084702031C032904290E2951171A
:10120A003A08C7023B08C83B3C08C93B3D08CA3BF1
:10121A000E290130C2004208D30713291A3053029B
:10122A00031C18291929D1281A294A0849044804EB
:10123A0047040319212922293E294E143E293E2911
:10124A000130BE35BF0DC00DC10D890B2629D11F36
:10125A002F29302932293E1432290130CE35CF0DBB
:10126A00D00DD10D890B3329FF30CC07FF30CD3D8E
:10127A003E29C01F4129422925294329D301D11FCB
:10128A00472948296829FF304E05C200FF304F051B
:10129A00C300FF305005C4007F305105C500450822
:1012AA0044044304420403195B295C295F29D301DE
:1012BA00D30A68293E1C622963296829D301D30A03
:1012CA00682968296829530803196C296D299729FF
:1012DA000130BE070030BF3D0030C03D0030C13D87
:1012EA00411C7829792997293E08C2003F08C30082
:1012FA004008C4004108C5000130C600C537C40C07
:10130A00C30CC20CC60B83294508C1004408C0009F
:10131A004308BF004208BE000130CC070030CD3D73
:10132A00972997294D08803AC20080304202031D4E
:10133A00A029FF304C02031CA329A429B129FF309C
:10134A002000CC000030CD000030C1000030C000C9
:10135A000030BF000030BE0020004D08803AC200B5
:10136A0080304202031DBB2901304C020318BE29FA
:10137A00BF29CB292000CC01CD010030C1000030AB
:10138A00C0000030BF000030BE00CB0120004C0876
:10139A00C2004208D200521CD329D429D629C01728
:1013AA00DA297F30C2004208C0055236C20042081C
:1013BA00C1004B08C2004208C1044108BD004008F0
:1013CA00BC003F08BB003E08BA00EB290800200019
:1013DA0041088039C6004608D2004135C600460891
:1013EA00D400C01FF929FA29FC295414FC295408ED
:1013FA000319002A012A122A540A031D052A062A59
:10140A000F2A0030C1000030C0000030BF00003099
:10141A00BE000F2AC017C1011B2A0030C1000030CC
:10142A00C0000030BF000030BE001B2A45088039CA
:10143A00C6004608D300530852060319252A262A4D
:10144A00282A5217282A4535C6004608D300C41F41
:10145A002F2A302A322A5314322A53080319362AD9
:10146A00372A482A530A031D3B2A3C2A452A0030B8
:10147A00C5000030C4000030C3000030C200452A55
:10148A00C417C501502A0030C5000030C40000301E
:10149A00C3000030C200540853020318552A562AC2
:1014AA009C2A521F592A5A2A5F2A8030C6004608A7
:1014BA00D2065F2A5408C6004608D5005308C6005B
:1014CA004608D4005508C6004608D3003E08C600A0
:1014DA004608D5004208C6004608BE005508C600A0
:1014EA004608C2003F08C6004608D5004308C600A1
:1014FA004608BF005508C6004608C3004008C60093
:10150A004608D5004408C6004608C0005508C6006B
:10151A004608C4004108C6004608D5004508C6006A
:10152A004608C1005508C6004608C5009C2AD501D0
:10153A005408C600C701C609C709C60A0319C70A5B
:10154A0053084607C80047080318470AC90049084C
:10155A00803ACA0080304A02031DB52A1A3048026E
:10156A00031CB82AB92AF52A2000410840043F047E
:10157A003E04031DC12AC32A0130C42A0030C60012
:10158A004608D5000030C1000030C0000030BF005E
:10159A000030BE005308C6004608D400FD2AF52ACA
:1015AA00551CD82AD92ADF2A55360138C6004608DA
:1015BA00D500E22A0310D50CE22A3E1CE52AE62AC7
:1015CA00E82AD517E82A0130C600C137C00CBF0C7B
:1015DA00BE0CC60BEA2A0130C6004608D407F52A13
:1015EA00200053085402031CFB2AFC2AD52AFD2A90
:1015FA00521B002B012B3D2B5408031D052B062BD8
:10160A00102B0030C1000030C0000030BF00003095
:10161A00BE005D2C5D2C4208BE074308BF3D44084E
:10162A00C03D4508C13D411C1B2B1C2BE42B551CFE
:10163A001F2B202B262B55360138C6004608D5000D
:10164A00292B0310D50C292B3E1C2C2B2D2B2F2B91
:10165A00D5172F2B0130C600C137C00CBF0CBE0CEA
:10166A00C60B312B0130C6004608D407E42BE42B05
:10167A004108803AC6004508803A4602031D4F2BAE
:10168A0044084002031D4F2B43083F02031D4F2B02
:10169A0042083E020318522B532B9F2BFF30C600E1
:1016AA00FF30C700FF30C800FF30C9004208CA0037
:1016BA004308CB004408CC004508CD003E09CE00C3
:1016CA003F09CF004009D0004109D100CE0A0319D1
:1016DA00CF0A0319D00A0319D10A4E08CA074F08BC
:1016EA00CB3D5008CC3D5108CD3D4A08C6074B08B2
:1016FA00C73D4C08C83D4D08C93D4908C1004808C6
:10170A00C0004708BF004608BE008030C600460831
:10171A00D206D509D50A5508031D942B952BA72B5C
:10172A000130BE070030BF3D0030C03D0030C13D32
:10173A00A72BA72B4208BE024308BF3B4408C03B65
:10174A004508C13B410840043F043E04031DAE2B3B
:10175A00AF2BDE2B5508031DB32BB42BDE2B003029
:10176A00C1000030C0000030BF000030BE005D2C58
:10177A005D2CDE2B0130BE35BF0DC00DC10D890BAE
:10178A00C02BD51FC92BCA2BCB2B3E14551CCE2BD5
:10179A00CF2BD22B0314D50DD52B0310D50DD52B5A
:1017AA0054080319D92BDA2BDE2B0130D402DE2B95
:1017BA00DE2BC01FE12BE22BBF2BE42BE42BD30142
:1017CA00D51FE82BE92BFB2B55087F390319EE2B84
:1017DA00EF2BF22BD301D30AFB2B3E1CF52BF62B56
:1017EA00FB2BD301D30AFB2BFB2BFB2B530803192F
:1017FA00FF2B002C2F2C0130BE070030BF3D0030DC
:10180A00C03D0030C13D411C0B2C0C2C2F2C3E0836
:10181A00C6003F08C7004008C8004108C900013097
:10182A00CA00C937C80CC70CC60CCA0B162C490803
:10183A00C1004808C0004708BF004608BE00540A55
:10184A000319282C292C2F2C0130C6004608D4074E
:10185A002F2C2F2C540A0319332C342C3A2C5408CD
:10186A00031D382C392C4A2C3A2C0030C100003088
:10187A00C0000030BF000030BE005408031D462CD3
:10188A00472C4A2CD2014A2C4A2C541C4D2C4E2C43
:10189A00502CC017542C7F30C6004608C005543659
:1018AA00C6004608C100D21F5B2C5C2C5D2CC117F8
:1018BA000800220027082100AD0022002608210086
:1018CA00AC00220025082100AB00220024082100D8
:1018DA00AA00200064082100AD002000630821004E
:1018EA00AC00200062082100AB0020006108210042
:1018FA00AA002A082000E60021002B082000E700A1
:10190A0021002C082000E80021002D082000E90011
:10191A001F30E936E80CE70CE60C890B8E2C6708B9
:10192A002100A900200066082100A800FF302A052E
:10193A00A400FF302B05A500FF302C05A6007F3040
:10194A002D05A700803026027F30273B031CAE2CD2
:10195A00AF2CDF2C20006408C1006308C0006208B5
:10196A00BF006108BE006408BD006308BC006208CD
:10197A00BB006108BA009B314C238C3120003D0822
:10198A00C5003C08C4003B08C3003A08C2008931BC
:10199A00EC218C3120006508860087013E08C03F93
:1019AA003F08C13F4008C23F4108C33FE101E2018D
:1019BA00FF2FFF2FDB30210024020F30253BC930D7
:1019CA00263B4D30273B0318EB2CEC2C6D2E2000C8
:1019DA006408F3006308F2006208F1006108F0008D
:1019EA009B3194238C3173082100B9007208B80026
:1019FA007108B7007008B60039082000A700210056
:101A0A0038082000A600210037082000A500210080
:101A1A0036082000A400AC30840099308500003FCD
:101A2A00E600013FE700023FE800033FE9006908DA
:101A3A00A3006808A2006708A1006608A000953103
:101A4A0095258C3120002308C5002208C4002108EE
:101A5A00C3002008C200B030840099308500003FDE
:101A6A00EA00013FEB00023FEC00033FED006D0886
:101A7A00C1006C08C0006B08BF006A08BE0089314B
:101A8A00EC218C3120004108D9004008D8003F08D9
:101A9A00D7003E08D6009D31F3258C312000590825
:101AAA002100BD00200058082100BC002000570872
:101ABA002100BB00200056082100BA003D08F300AF
:101ACA003C08F2003B08F1003A08F00001309E3170
:101ADA0088268C3173082100B5007208B400710899
:101AEA00B3007008B20039082000C100210038088C
:101AFA002000C000210037082000BF00210036085E
:101B0A002000BE00210035082000A700210034086B
:101B1A002000A600210033082000A5002100320879
:101B2A002000A400A830840099308500003FE60018
:101B3A00013FE700023FE800033FE9006908A3000C
:101B4A006808A2006708A1006608A00095319525DB
:101B5A008C3120002308BD002208BC002108BB00EC
:101B6A002008BA009B314C238C3120003D08C50067
:101B7A003C08C4003B08C3003A08C2008931EC2182
:101B8A008C31200041082100B100200040082100CA
:101B9A00B00020003F082100AF0020003E082100CD
:101BAA00AE0035082000A700210034082000A60056
:101BBA00210033082000A500210032082000A400DB
:101BCA00A430840099308500003FE600013FE70019
:101BDA00023FE800033FE9006908A3006808A20081
:101BEA006708A1006608A000953195258C31200070
:101BFA002308BD002208BC002108BB002008BA0047
:101C0A009B314C238C3120003D08C1003C08C000A8
:101C1A003B08BF003A08BE00210031082000C50079
:101C2A00210030082000C40021002F082000C30032
:101C3A0021002E082000C2008931EC218C312000BD
:101C4A006508860087013E08C03F3F08C13F40083B
:101C5A00C23F4108C33F2100280829040319362E30
:101C6A00372E632E2000650886008701403FBA00A0
:101C7A00413FBB00423FBC00433FBD009B314C2368
:101C8A008C3120006508860087013A08C03F3B086E
:101C9A00C13F3C08C23F3D08C33F21003A0920002A
:101CAA00E60021003B092000E700E60A0319E70ADB
:101CBA006608E1006708E200FF2FFF2F21003B08BA
:101CCA002000E20021003A082000E100FF2FFF2F48
:101CDA0020006408F3006308F2006208F10061085A
:101CEA00F0009B3194238C3173082100B9007208EB
:101CFA00B8007108B7007008B60039082000A700BC
:101D0A00210038082000A600210037082000A5007D
:101D1A00210036082000A400AC30840099308500E8
:101D2A00003FE600013FE700023FE800033FE90009
:101D3A006908A3006808A2006708A1006608A00055
:101D4A00953195258C3120002308C5002208C4004E
:101D5A002108C3002008C200B030840099308500F1
:101D6A00003FEA00013FEB00023FEC00033FED00B9
:101D7A006D08C1006C08C0006B08BF006A08BE008D
:101D8A008931EC218C3120004108D9004008D80063
:101D9A003F08D7003E08D6009D31F3258C3120003C
:101DAA0059082100BD00200058082100BC0020006D
:101DBA0057082100BB00200056082100BA003D0840
:101DCA00F3003C08F2003B08F1003A08F000013049
:101DDA009E3188268C3173082100B5007208B40040
:101DEA007108B3007008B20039082000C100210050
:101DFA0038082000C000210037082000BF00210059
:101E0A0036082000BE00210035082000A700210066
:101E1A0034082000A600210033082000A500210074
:101E2A0032082000A400A830840099308500003FC1
:101E3A00E600013FE700023FE800033FE9006908C6
:101E4A00A3006808A2006708A1006608A0009531EF
:101E5A0095258C3120002308BD002208BC002108EA
:101E6A00BB002008BA009B314C238C3120003D086E
:101E7A00C5003C08C4003B08C3003A08C2008931C7
:101E8A00EC218C31200041082100B10020004008DB
:101E9A002100B00020003F082100AF0020003E08CA
:101EAA002100AE0035082000A700210034082000D8
:101EBA00A600210033082000A500210032082000D6
:101ECA00A400A430840099308500003FE600013F59
:101EDA00E700023FE800033FE9006908A300680839
:101EEA00A2006708A1006608A000953195258C31EB
:101EFA0020002308BD002208BC002108BB002008DE
:101F0A00BA009B314C238C3120003D08C1003C08AB
:101F1A00C0003B08BF003A08BE002100310820007B
:101F2A00C500210030082000C40021002F0820002D
:101F3A00C30021002E082000C2008931EC218C3117
:101F4A00200041082100A300200040082100A2002F
:101F5A0020003F082100A10020003E082100A00027
:101F6A00280829040319BA2FBB2FEA2F23082000B7
:101F7A00BD00210022082000BC0021002108200009
:101F8A00BB00210020082000BA009B314C238C3171
:101F9A0020006508860087013A08C03F3B08C13F18
:101FAA003C08C23F3D08C33F21003A092000E60031
:101FBA0021003B092000E700E60A0319E70A660840
:101FCA00E1006708E200FF2FFF2F20006508860066
:101FDA00870121002008C03F2108C13F2208C23FD3
:101FEA002308C33F3B082000E20021003A082000F2
:061FFA00E100FF2F0800CA
:10200200F000700822009A0008009B3148239031AA
:1020120088310620903180312B2090319B3144232E
:1020220090311328803102282000B3002100EC1BDC
:102032001B281C282128FD302000EE05FF30EF056B
:1020420021006C08803A2000B00080303002031D6D
:102052002D28013021006B0203183028312837283F
:1020620001302000B1000030B2003F2821006C088E
:102072002000B20021006B082000B10021006A0894
:102082002000B500210069082000B4002F08B90023
:102092002E08B8002D08B7002C08B6001F30BA0071
:1020A2000030BB003A082C3E8600013087008101D7
:1020B200A228FF302000BA07FF30BB3D0030F300FA
:1020C2000030F2000030F1000A30F0003908F70069
:1020D2003808F6003708F5003608F4009C318524EC
:1020E20090317008303E2000B0003A082C3E860045
:1020F2000130870030088100FF30B107FF30B23D68
:10210200FF30B407FF30B53D0030F3000030F2007D
:102112000030F1000A30F0003908F7003808F60004
:102122003708F5003608F4009D312F2590317308E9
:102132002000B9007208B8007108B7007008B60034
:10214200A2283A083B040319A728A828D32839084B
:10215200380437043604031DAF28B0285A28320841
:10216200803AB00080303002031DB92801303102BC
:102172000318BC28BD285A2820003508803AB00030
:1021820080303002031DC72801303402031CCA28E4
:10219200CB28D3282000EE18CF28D0285A28D328BD
:1021A200D328D32820003A082C3EB0003008A400DF
:1021B2003508A6003408A50033089C31D624903196
:1021C20020002508AD002408AC00E7280800220002
:1021D2002B082000E90022002A082000E800220043
:1021E20029082000E700220028082000E6005908FC
:1021F200E9005808E8005708E7005608E6006608B4
:10220200DA006708DB006808DC006908DD001730C7
:10221200DD36DC0CDB0CDA0C890B0929FF305A05A0
:10222200DE0000305B05DF005E08813EE400FF3027
:102232005F3DE5006508803ADA0080305A02031DEE
:10224200242917306402031C272928292929D62981
:102252002000E51B2D292E298C29FF30DA00FF30C2
:10226200DB007F30DC000030DD00640A3C29DD3712
:10227200DC0CDB0CDA0C890B38295D08E3005C0806
:10228200E2005B08E1005A08E00066086005DA0037
:1022920067086105DB0068086205DC006908630500
:1022A200DD005D085C045B045A04031D59295A29A8
:1022B2005B29D6296608DA006708DB006808DC00BB
:1022C2006908DD001F30DD36DC0CDB0CDA0C890B13
:1022D20064295D085C045B045A04031D7129722998
:1022E2007B296008E6076108E73D6208E83D63086C
:1022F200E93D7B296009DA006109DB006209DC0043
:102302006309DD005A08E6055B08E7055C08E80595
:102312005D08E905CD296608DA006708DB00680870
:10232200DC006908DD001F30DD36DC0CDB0CDA0C6A
:10233200890B95295D085C045B045A040319A229E0
:10234200A329AC298030E9000030E8000030E70022
:102352000030E600CD296608DA006708DB0068086D
:10236200DC006908DD000130DA35DB0DDC0DDD0D46
:10237200890BB5295D085C045B045A040319C22960
:10238200C329CD293F30E9008030E8000030E70062
:102392000030E600CD29CD296908D9006808D800A7
:1023A2006708D7006608D600D62908002000590819
:1023B200A3005808A2005708A1005608A000590817
:1023C200A7005808A6005708A5005608A400953192
:1023D20095259131200023082100B7002000220812
:1023E2002100B600200021082100B50020002008AD
:1023F2002100B40037082000A30021003608200085
:10240200A200210035082000A1002100340820008C
:10241200A000210037082000A70021003608200074
:10242200A600210035082000A50021003408200064
:10243200A400953195259131200023082100B30095
:10244200200022082100B200200021082100B10052
:10245200200020082100B000BC30840099308500A3
:10246200003F2000DA00013FDB00023FDC00033FB7
:10247200DD005D08C1005C08C0005B08BF005A08AF
:10248200BE00B830840099308500003FDE00013F75
:10249200DF00023FE000033FE1006108A3006008A3
:1024A200A2005F08A1005E08A000210037082000FA
:1024B200A700210036082000A600210035082000D0
:1024C200A500210034082000A40095319525913102
:1024D20020002308C5002208C4002108C3002008E8
:1024E200C2008931EC219131200041082100A30072
:1024F200200040082100A20020003F082100A10086
:1025020020003E082100A00037082000A30021007F
:1025120036082000A200210035082000A100210079
:1025220034082000A000210033082000A700210069
:1025320032082000A600210031082000A500210059
:1025420030082000A4009531952591312000230800
:102552002100A700200022082100A6002000210857
:102562002100A500200020082100A4003F30200007
:10257200C1008030C0000030BF000030BE00C43057
:10258200840099308500003FDA00013FDB00023F02
:10259200DC00033FDD005D08A3005C08A2005B08CD
:1025A200A1005A08A000210037082000A70021003E
:1025B20036082000A600210035082000A5002100D1
:1025C20034082000A400953195259131200023087C
:1025D200C5002208C4002108C3002008C2008931B6
:1025E200EC219131200041082100AB00200040087D
:1025F2002100AA0020003F082100A90020003E0877
:102602002100A800C030840099308500003F2000DE
:10261200DA00013FDB00023FDC00033FDD005D0822
:10262200A3005C08A2005B08A1005A08A0002100D8
:1026320033082000A700210032082000A600210054
:1026420031082000A500210030082000A4009531A7
:102652009525913120002308C1002208C0002108DD
:10266200BF002008BE0021002B082000C500210069
:102672002A082000C400210029082000C3002100EC
:1026820028082000C2008931EC2191312000410844
:102692002100AF00200040082100AE0020003F08CA
:1026A2002100AD0020003E082100AC0023082000DC
:1026B200A300210022082000A200210021082000FE
:1026C200A100210020082000A000210027082000EE
:1026D200A700210026082000A600210025082000CE
:1026E200A500210024082000A400953195259131F0
:1026F20020002308C1002208C0002108BF002008D2
:10270200BE0021002F082000C50021002E08200055
:10271200C40021002D082000C30021002C08200045
:10272200C2008931EC21913120004108D9004008D2
:10273200D8003F08D7003E08D6009F2B0800200093
:102742005908A3005808A2005708A1005608A00083
:102752005908A7005808A6005708A5005608A40063
:10276200953195259331200023082100BB002000DC
:1027720022082100BA00200021082100B90020000F
:1027820020082100B8003B082000A30021003A08DD
:102792002000A200210039082000A10021003808F1
:1027A2002000A00021003B082000A70021003A08D9
:1027B2002000A600210039082000A50021003808C9
:1027C2002000A40095319525933120002308210093
:1027D200A700200022082100A600200021082100D5
:1027E200A500200020082100A40098308400993020
:1027F2008500003F2000DA00013FDB00023FDC00E1
:10280200033FDD005D08C1005C08C0005B08BF003B
:102812005A08BE009430840099308500003FDE00E3
:10282200013FDF00023FE000033FE1006108A30037
:102832006008A2005F08A1005E08A00021003B081A
:102842002000A70021003A082000A6002100390834
:102852002000A500210038082000A400953195250C
:10286200933120002308C5002208C4002108C300B8
:102872002008C2008931EC21933120004108210057
:10288200A300200040082100A20020003F082100F0
:10289200A10020003E082100A00020005908A3004A
:1028A2005808A2005708A1005608A00021003B08C2
:1028B2002000A70021003A082000A60021003908C4
:1028C2002000A500210038082000A400953195259C
:1028D2009331200023082100B700200022082100A4
:1028E200B600200021082100B500200020082100A8
:1028F200B40027082000A300210026082000A2001F
:10290200210025082000A100210024082000A000A9
:10291200210037082000A700210036082000A60069
:10292200210035082000A500210034082000A40061
:10293200953195259331200023082100AB0020001A
:1029420022082100AA00200021082100A90020005D
:1029520020082100A800A030840099308500003FA3
:102962002000DA00013FDB00023FDC00033FDD0014
:102972005D08C1005C08C0005B08BF005A08BE00C9
:102982009C30840099308500003FDE00013FDF006B
:10299200023FE000033FE1006108A3006008A200DB
:1029A2005F08A1005E08A00021003B082000A700EC
:1029B20021003A082000A600210039082000A500C5
:1029C200210038082000A40095319525933120007C
:1029D2002308C5002208C4002108C3002008C20041
:1029E2008931EC219331200041082100AF00200001
:1029F20040082100AE0020003F082100AD00200069
:102A02003E082100AC0020005908C1005808C0004F
:102A12005708BF005608BE00210037082000A30057
:102A2200210036082000A200210035082000A10064
:102A3200210034082000A00021002F082000A70058
:102A420021002E082000A60021002D082000A5004C
:102A520021002C082000A4009531952593312000F7
:102A62002308C5002208C4002108C3002008C200B0
:102A72008931EC219331200041082100B30020006C
:102A820040082100B20020003F082100B1002000D0
:102A92003E082100B00023082000A30021002208E4
:102AA2002000A200210021082000A100210020080E
:102AB2002000A00021002B082000A70021002A08E6
:102AC2002000A600210029082000A50021002808D6
:102AD2002000A40095319525933120002308C100E0
:102AE2002208C0002108BF002008BE0021003308D0
:102AF2002000C500210032082000C4002100310856
:102B02002000C300210030082000C2008931EC21DE
:102B1200933120004108D9004008D8003F08D7006F
:102B22003E08D600942D0800200023088039A80012
:102B32002808AD002335A8002808B300A21FA22D43
:102B4200A32DA52D3314A52D33080319A92DAA2DC4
:102B5200BA2D330A031DAE2DAF2DB82D0030A300C0
:102B62000030A2000030A1000030A000B82DA21752
:102B7200C32D0030A3000030A2000030A1000030BD
:102B8200A000C32D27088039A8002808AD062735E4
:102B9200A8002808B200A61FCF2DD02DD22D3214A6
:102BA200D22D32080319D62DD72DE72D320A031D57
:102BB200DB2DDC2DE52D0030A7000030A600003013
:102BC200A5000030A400E52DA617F02D0030A700C7
:102BD2000030A6000030A5000030A400F02D32081D
:102BE2000319F42DF52DFB2D3308031DF92DFA2DB4
:102BF200052EFB2D0030A3000030A2000030A10002
:102C02000030A000FF2FFF2F2008A8002808F000A6
:102C1200260880310520953171082000B90070081E
:102C2200B8003808A800A901AA01AB012B08B1001D
:102C32002A08B0002908AF002808AE003908A80009
:102C4200A901AA01AB012B08B7002A08B60029087E
:102C5200B5002808B4002108A8002808F0002508BB
:102C620080310520953171082000B9007008B80044
:102C72003808A800A901AA01AB012808AE07290853
:102C8200AF3D2A08B03D2B08B13D3908A800A90183
:102C9200AA01AB012808B4072908B53D2A08B63DA8
:102CA2002B08B73D2208A8002808F000240880312C
:102CB2000520953171082000B9007008B800380865
:102CC200A800A901AA01AB012808AE072908AF3D57
:102CD2002A08B03D2B08B13D3908A800A901AA0174
:102CE200AB012808B4072908B53D2A08B63D2B08D0
:102CF200B73D0830AE35AF0DB00DB10D890B7B2E4F
:102D02002108A8002808F000240880310520953108
:102D120071082000B9007008B8003808AE073908F9
:102D2200AF3D0030B03DB13D2008A8002808F000BA
:102D3200250880310520953171082000B9007008FE
:102D4200B8003808AE073908AF3D0030B03DB13D9C
:102D52000830AE35AF0DB00DB10D890BAA2E20088B
:102D6200A8002808F0002408803105209531710858
:102D72002000B9007008B8003808AE073908AF3D26
:102D82000030B03DB13D2108A8002808F000260817
:102D920080310520953171082000B9007008B80013
:102DA2003808B4073908B53D0030B63DB73D2208B2
:102DB200A8002808F0002508803105209531710807
:102DC2002000B9007008B8003808B4073908B53DCA
:102DD2000030B63DB73D2208A8002808F0002608BA
:102DE20080310520953171082000B9007008B800C3
:102DF2003808A8003908A900AA01AB010830A83593
:102E0200A90DAA0DAB0D890B002F2808B4072908BC
:102E1200B53D2A08B63D2B08B73D2E08A8002F085D
:102E2200A9003008AA003108AB001830AB36AA0C52
:102E3200A90CA80C890B172F2808B4072908B53D3F
:102E42002A08B63D2B08B73D0830AE35AF0DB00DA0
:102E5200B10D890B262F33083207A800A901A90D4D
:102E62002808823EB800FF30293DB900512F0130B9
:102E7200B435B50DB60DB70D890B392FB11F422FE1
:102E8200432F452F3414452F0130AE35AF0DB00D11
:102E9200B10D890B462FFF30B807FF30B93D512FD6
:102EA200B61F542F552F382F562FB201B11F5A2F4C
:102EB2005B2F7B2FFF302E05A800FF302F05A900C6
:102EC200FF303005AA007F303105AB002B082A0401
:102ED2002904280403196E2F6F2F722FB201B20A30
:102EE2007B2F341C752F762F7B2FB201B20A7B2FDA
:102EF2007B2F7B2F320803197F2F802FAA2F0130BF
:102F0200B4070030B53D0030B63D0030B73D371C48
:102F12008B2F8C2FAA2F3408A8003508A900360859
:102F2200AA003708AB000130AC00AB37AA0CA90CE1
:102F3200A80CAC0B962F2B08B7002A08B60029085C
:102F4200B5002808B4000130B8070030B93DAA2FF7
:102F5200AA2F3908803AA80080302802031DB32F17
:102F6200FF303802031CB62FB72FC12F7F3020004D
:102F7200B7008030B6000030B5000030B400F22F48
:102F820020003908803AA80080302802031DCB2F88
:102F9200013038020318CE2FCF2FDA2F0030200055
:102FA200B7000030B6000030B5000030B400AD010B
:102FB200F22F20003808A8002808B300FF30B4051B
:102FC200FF30B5057F30B6050030B705331CEA2F58
:102FD200EB2FED2FB617ED2F3336A8002808B700D8
:102FE200F22F2D08A8002808B7043708A3003608D6
:102FF200A2003508A1003408A000FF2F0800003409
:10300200003400340034003400340034003400341E
:10301200003400340034003400340034003400340E
:1030220000340034003400340034003400340034FE
:1030320000340034003400340034003400340034EE
:1030420000340034003400340034003400340034DE
:1030520000340034003400340034003400340034CE
:1030620000340034003400340034003400340034BE
:1030720000340034003400340034003400340034AE
:10308200003400340034003400340034003400349E
:10309200003400340134003400340034003400348D
:1030A200003400340034003400340034003400347E
:1030B200003400340034003400340134003400346D
:1030C200003400340034003400340034003400345E
:1030D200003400340034003400340034003400344E
:1030E200013400340034003400340034003400343D
:1030F200003400340034003400340034003400342E
:10310200003400340034013400340034003400341C
:10311200003400340034003400340034003401340C
:1031220000340034003400340034003401340034FC
:1031320000340034003400340034003400340034ED
:1031420000340034003400340134003400340034DC
:1031520000340134003400340034003400340034CC
:1031620000340034003400340034003400340034BD
:1031720000340134003400340134003400340034AB
:10318200003400340034003400340034003400349D
:10319200003400340034003400340034013401348B
:1031A200003400340034003400340034003400347D
:1031B200003400340034003400340034003400346D
:1031C200003400340134013400340034003400345B
:1031D200003400340034003400340034003400344D
:1031E200003400340034003400340134003400343C
:1031F200013400340034003400340034003400342C
:10320200003400340034003400340034003400341C
:10321200013400340034003400340134003400340A
:1032220000340034003400340034003400340034FC
:1032320000340034003401340034003400340034EB
:1032420000340034013400340034003400340034DB
:1032520000340034003400340034003400340034CC
:1032620000340034003400340034003400340134BB
:1032720000340034003400340034003400340034AC
:10328200003400340034003400340034003400349C
:10329200003400340034003401340034003400348B
:1032A200003400340034003400340034003400347C
:1032B200003400340034003400340034003400346C
:1032C200003401340034003400340034003400345B
:1032D200003400340034003400340034003400344C
:1032E200003400340034003400340034013400343B
:1032F200003400340034003400340034003400342C
:10330200003400340034003400340034003400341B
:1033120000340034003400340034003400342534E6
:103322007534203400343C346C3436343634CF3483
:1033320007345034B9348434883408343C34AB34E0
:10334200AA342A34BE34A334853488343234DA348D
:103352000F34C9343F348334F93422343F340034D7
:10336200003400343F340034003440344B341734DA
:103372009A34CC3437343F340434B634BA349F34BC
:10338200AA342A343D34003400340034BF34DB34F0
:103392000F34C9344034E434CB3496344034DB3413
:1033A2000F3449344034DB340F34C9343F340A34E7
:0233B2000034E5
:10368800200096131617080022009E169D170800A2
:1036980020003D083C043B043A040319542B552BE5
:1036A800582B8030BD06582B592B0800523020006B
:1036B800D4005408D7005108C9005008C800573032
:1036C800D4005408CA0000309C310C249B312000DF
:1036D8004908D6004808D500712B0800F401F50107
:1036E800752B701C782B792B7D2B7208F4077308C7
:1036F800F53D0130F235F30D890B7E2B0130F136A3
:10370800F00C890B832B70087104031D8C2B8D2BF7
:10371800752B8E2B7508F1007408F000932B0800A8
:1037280022002308F7002208F6002108F5002008E7
:10373800F4007308F7007208F6007108F5007008C5
:10374800F400FF30F405FF30F505FF30F6057F3053
:10375800F7057708F3007608F2007508F100740899
:10376800F000B62B0800F7007708F2007208F600A0
:10377800C22B0130F2007208F707C22B77088600C7
:10378800013087000108031DCA2BCB2BBD2BCC2B86
:103798007608F2000130F300F209F309F20A03197E
:1037A800F30A7708F4000130F50072087407F00096
:1037B8007308753DF100E02B08002000A300A1016B
:1037C800A201FA2B2008FA00FB017A08F1007B0815
:1037D800F2007908FC007C08F3009C3141249B31FD
:1037E80001302000A1070030A23DFA2B2108230751
:1037F800FA007A088600013087000108FB007B0880
:10380800A0002008031D092C0A2CE62B0B2C08000D
:103818002000CD004908CF004808CE002100E7016C
:10382800E8012C2C4E302000CB004B08BC004A0885
:10383800CC004C08BD004D089F313C279C3120002E
:103848003C082100E70720003D082100E83D2C2C1A
:1038580020004E0884004F0885001200031D352CF7
:10386800362C162C372C210068082000C9002100AE
:1038780067082000C800402C080073080319452C6D
:10388800462C4C2C7308031D4A2C4B2C512C4C2CC9
:103898007108903101209C31842C7308033E860006
:1038A80087011600010403195A2C5B2C792C730824
:1038B800033E86008701403FF400413FF500730A4C
:1038C80086008701403FF600413FF7007708803ABD
:1038D800F8007508803A7802031D742C7408760283
:1038E8000318772C782C842C792C730A860087018E
:1038F8000130810741310318810A842C842C842CDF
:103908000800730872047104700403198C2C8D2C40
:10391800CC2CF901F90A9C2C0130F035F10DF20D8F
:10392800F30D890B912C0130F8007808F9079C2CCD
:10393800F31F9F2CA02C902CA22CA22C730877028A
:10394800031DB02C72087602031DB02C7108750295
:10395800031DB02C70087402031CB32CB42CBD2CAE
:103968007008F4027108F53B7208F63B7308F73BE0
:10397800BD2C0130F336F20CF10CF00C890BBE2C87
:103988000130F902031DC92CCA2CA22CCC2CCC2C3A
:103998007708F3007608F2007508F1007408F00063
:1039A800D52C08002000AB006E1CDB2CDC2CE52C91
:1039B8002B08FD007D08F90024089B31E1239C3188
:1039C800E52C2000A61BE92CEA2CEF2C2608AA00DF
:1039D8002508A900F12CA901AA01A701A801062D13
:1039E8002030F1000030F20020002B08FD007D0897
:1039F800F3009C3141249C3101302000A70700309E
:103A0800A83D062D2808803AFD002A08803A7D0244
:103A1800031D102D29082702031C132D142DF42C27
:103A280020006E18182D192D212D2B08FD007D085A
:103A3800F90024089B31E1239C31200024089B31A4
:103A4800B7239C31200029087007A4002A08713D7B
:103A5800A5002E2D08000030FC000030FB000030CF
:103A6800FA000030F9007308720471047004031935
:103A78003E2D3F2D862DFD01FD0A4E2D0130F035DE
:103A8800F10DF20DF30D890B432D0130F800780884
:103A9800FD074E2DF31F512D522D422D542D542D1F
:103AA8000130F935FA0DFB0DFC0D890B552D730806
:103AB8007702031D692D72087602031D692D7108AE
:103AC8007502031D692D70087402031C6C2D6D2D81
:103AD800772D7008F4027108F53B7208F63B7308FD
:103AE800F73B7914772D0130F336F20CF10CF00C1A
:103AF800890B782D0130FD02031D832D842D542D53
:103B0800862D862D7C08F3007B08F2007A08F100E8
:103B18007908F0008F2D08000030210020052000D2
:103B2800EA000030210021052000EB008030210050
:103B380022052000EC007F30210023052000ED0045
:103B48006D086C046B046A04031DAB2DAC2DB52DF8
:103B580000302100A3000030A2000030A100003096
:103B6800A0000030210024052000EA0000302100D8
:103B780025052000EB008030210026052000EC0000
:103B88007F30210027052000ED006D086C046B04D0
:103B98006A04031DD02DD12DDA2D00302100A70095
:103BA8000030A6000030A5000030A400210027083E
:103BB8002306031DE92D26082206031DE92D2508E5
:103BC8002106031DE92D240820060319EC2DED2DEF
:103BD800EF2D0310F22D0314F22DF22D0800200012
:103BE8005608DA005708DB005808DC005908DD00E1
:103BF80003105C0D5D0DDE005E08E0006008031D2B
:103C0800062E072E112E0030D9000030D8000030C3
:103C1800D7000030D600872E872E5608DA005708BE
:103C2800DB005808DC005908DD001F30DD36DC0CED
:103C3800DB0CDA0C890B1A2E5A08DE005E08DF004E
:103C4800D817FF30D605FF30D705FF30D80500302C
:103C5800D9059630E002E01F322E332E562E60082A
:103C6800803A973E0318392E3A2E452E0030D90057
:103C78000030D8000030D7000030D600872E872EBD
:103C8800452E0130D936D80CD70CD60C890B462EC8
:103C98000130DA005A08E007031D532E542E452E32
:103CA800772E772E20306002031C5B2E5C2E702E40
:103CB8000030D9000030D8000030D7000030D600DE
:103CC800872E872E702E0130D635D70DD80DD90DF9
:103CD800890B682E0130E0026008031D742E752ED2
:103CE800672E772E772E5F0803197B2E7C2E872E62
:103CF800D609D709D809D909D60A0319D70A031941
:103D0800D80A0319D90A0800F800780803198D2E73
:103D18008E2EA22EF31F912E922EA22E7009FA003B
:103D28007109FB007209FC007309FD00FA0A031906
:103D3800FB0A0319FC0A0319FD0AAA2E7308FD00E1
:103D48007208FC007108FB007008FA00730872041E
:103D580071047004031DB12EB22EBC2E0030F30086
:103D68000030F2000030F1000030F0003B2F3B2F14
:103D78009630F4007408F900CD2E0130F400740870
:103D8800F9070130FD36FC0CFB0CFA0C890BC62E2A
:103D9800CD2EFE307D05031DD22ED32EC12EE82E4A
:103DA800E82E0130F4007408F9070130FA070030F2
:103DB800FB3D0030FC3D0030FD3D0130FD36FC0C84
:103DC800FB0CFA0C890BE22EFF307D05031DED2E4E
:103DD800EE2ED52EFA2EFA2E0130F9020130FA35E0
:103DE800FB0DFC0DFD0D890BF32EFA2EFC1BFD2E91
:103DF800FE2E052F023079020318032F042FF02E10
:103E0800052F7918082F092F112FFF30FA05FF30D9
:103E1800FB057F30FC05FF30FD050310F90C790820
:103E2800F400F501F601F7011830F435F50DF60D3B
:103E3800F70D890B192F7408FA047508FB04760826
:103E4800FC047708FD04780803192B2F2C2F322F38
:103E5800F31F2F2F302F322FFD17322F7D08F3003D
:103E68007C08F2007B08F1007A08F0003B2F08007C
:103E78002000C7003C0886008701403FBE00413F44
:103E8800BF003E0884003F0885001200253A031D44
:103E98004E2F4F2FD82F3C0886008701013081070D
:103EA80041310318810A2100E901EA012000EE01ED
:103EB800EF01FF302100EB00FF30EC0020003C0850
:103EC80086008701403FBE00413FBF003E08840096
:103ED8003F0885001200753A031D732F742FA12F18
:103EE8003C08860087010130810741310318810AA7
:103EF8003D0886008701010884008501023081079A
:103F0800003FBE00013FBF003E08C3003F08C40099
:103F1800C501C6014608AF004508AE004408AD001B
:103F28004308AC004708903115209F3120002D0828
:103F3800BD002C08BC00FF2FFF2F3C08860087011E
:103F4800403FBE00413FBF003E0884003F08850057
:103F58001200253A031DB12FB22FCC2F3C08860042
:103F680087010130810741310318810A2530F100AA
:103F78000030F2004708BE003E08F3009C3141249F
:103F88009F3101302000BC000030BD00FF2FFF2F03
:103F98003C08860087010130810741310318810AF6
:103FA800BC01BD01FF2FFF2F3C0886008701403F61
:103FB800BE00413FBF003E0884003F08850000085E
:103FC800C000C1014008F1004108F2004708C200E2
:103FD8004208F3009C3141249F3120003C088600B0
:103FE80087010130810741310318810A0130BC0083
:083FF8000030BD00FF2F08009E
:020000040001F9
:0A000E008C3FFF3F9F3FFF3FFF3F85
:00000001FF
