:020000040000FA
:08000000803102288731E12F55
:100C860080310228FE0012001E000130FE020030F4
:100C9600FF3B7F087E04031D462E0034FF34FF34DD
:100CA600FF34FF34FF34FF34FF34FF34FF34FF34A6
:100CB600FF34FF34FF34FF34FF34FF34FF34FF3496
:100CC600FF34FF34FF34FF34FF34FF34FF34FF3486
:100CD600FF34FF34FF34FF34FF34FF34FF34FF3476
:100CE600FF34FF34FF34FF34FF34FF34FF34FF3466
:100CF600FF34FF34FF34FF34FF34FF34FF34FF3456
:100D0600FF34FF34FF34FF34FF34FF34FF34FF3445
:100D1600FF34FF34FF34FF34FF34FF34FF34FF3435
:100D2600FF34FF34FF34FF34FF34FF34FF34FF3425
:100D3600FF348034FF34FF34FF34FF34FF34FF3494
:100D4600FF34FF34FF34FF34FF34FF34FF34FF3405
:100D5600FF34FF34FF34FF340034FF34FF34FF34F4
:100D6600FF34FF34FF34FF34FF34FF34FF34FF34E5
:100D7600FF34FF34FF34FF34FF34FF34FF340034D4
:100D8600FF34FF34FF34FF34FF34FF34FF34FF34C5
:100D9600FF34FF34FF34FF34FF34FF34FF34FF34B5
:100DA600FF34FF340034FF34FF34FF34FF34FF34A4
:100DB600FF34FF34FF34FF34FF34FF348034FF3414
:100DC600FF34FF34FF34FF34FF340034FF34FF3484
:100DD600FF34FF34FF34FF34FF34FF34FF34FF3475
:100DE600FF34FF34FF340034FF34FF34FF34FF3464
:100DF6000034FF34FF34FF34FF34FF34FF34FF3454
:100E0600FF34FF34FF34FF34FF34FF34FF34FF3444
:100E16000034FF34FF340034FF34FF34FF34FF3432
:100E2600FF34FF34FF34FF34FF34FF34FF34FF3424
:100E3600FF34FF34FF34FF34FF3400340034FF3412
:100E4600FF34FF34FF34FF34FF34FF34FF34FF3404
:100E5600FF34FF34FF34FF34FF34FF34FF34FF34F4
:100E6600FF3400340034FF34FF34FF34FF34FF34E2
:100E7600FF34FF34FF34FF34FF34FF34FF34FF34D4
:100E8600FF34FF34FF34FF340034FF34FF340034C2
:100E9600FF34FF34FF34FF34FF34FF34FF34FF34B4
:100EA600FF34FF34FF34FF34FF34FF34FF340034A3
:100EB600FF34FF34FF34FF340034FF34FF34FF3493
:100EC600FF34FF34FF34FF34FF34FF34FF34FF3484
:100ED600FF34FF348034FF34FF34FF34FF34FF34F3
:100EE600FF340034FF34FF34FF34FF34FF34FF3463
:100EF600FF34FF34FF34FF34FF34FF34FF34FF3454
:100F0600FF34FF34FF34FF34FF34FF340034FF3442
:100F1600FF34FF34FF34FF34FF34FF34FF34FF3433
:100F2600FF34FF34FF34FF34FF34FF34FF34FF3423
:100F3600FF34FF34FF340034FF34FF34FF34FF3412
:100F4600FF34FF34FF34FF34FF34FF34FF34FF3403
:100F5600FF34FF34FF34FF34FF34FF34FF34FF34F3
:100F66000034FF34FF34FF34FF34FF34FF34FF34E2
:100F7600FF34FF34FF34FF34FF34FF34FF34FF34D3
:100F8600FF34FF34FF34FF34FF348034FF34FF3442
:100F9600FF34FF34FF34FF34FF34FF34FF34FF34B3
:100FA600FF34FF34FF34FF34FF34FF34FF34FF34A3
:100FB600FF34FF34FF34FF34FF34FF3451308400F4
:100FC6008630850060308600223087000130FF00C1
:100FD6009030863145268731F001F101F201F301A7
:100FE600F401F501F601F701F801F901FA01FB0137
:100FF600FC01FD0120008631432EDB340F34C93459
:101006003F3400343C346C3436343634CF34073411
:101016005034B9348434883408343C34AB34AA347C
:101026002A34BE34A334853488343234DA340F3467
:10103600C9343F348334F93422343F340034003425
:1010460000343F340034003440344B3417349A347F
:10105600CC3437343F340434B634BA349F34AA34EB
:101066002A343D34003400340034BF346034423412
:10107600A2340D34DB340F34C9344034E434CB3479
:1010860096344034DB340F3449344034DB340F3487
:10109600C9343F34DB340F34C9344034E434CB3400
:0C10A60096344034DB340F3449344034BD
:020000040001F9
:0A000E008C3FFF3F9F3FFF3FFF3F85
:00000001FF
