:020000040000FA
:08000000803102288731E52F51
:10000A0052302000D4005408D7005108C9005008C3
:10001A00C8005730D4005408CA0000309B319523D9
:10002A00803120004908D6004808D5001C2808005D
:10003A0000302200D2009830D300D501D6015608EC
:10004A00803A2100DE0080305E02031D2F283730FF
:10005A0022005502031C322833283528E12AE12AD6
:10006A00B4302200DB000030DC005C08803A21005A
:10007A00DE0080305E02031D4528013022005B024B
:10008A000318482849284B28CC2ACC2A4330200078
:10009A00BD003430BC000030BB000030BA00403034
:1000AA00A3004930A2000F30A100DB30A0002200DB
:1000BA005B08F0005C08F100890D893B8909F200B0
:1000CA00F30001309D316D25803173082000A700AF
:1000DA007208A6007108A5007008A400953195253C
:1000EA00803120002308C1002208C0002108BF0077
:1000FA002008BE009E312126803120003D082200C2
:10010A00CD0020003C082200CC0020003B08220041
:10011A00CB0020003A082200CA004D082100D9006D
:10012A0022004C082100D80022004B082100D700E9
:10013A0022004A082100D6008231E22280312100C1
:10014A0059082200C500210058082200C4002100D5
:10015A0057082200C300210056082200C20042307C
:10016A002000DB00B430DA000030D9000030D800BB
:10017A0022005B08F0005C08F100890D893B8909BF
:10018A00F200F30001309D316D25803173082000A3
:10019A00A7007208A6007108A5007008A4004030E4
:1001AA00A3004930A2000F30A100DB30A000953136
:1001BA009525803120002308C1002208C0002108AB
:1001CA00BF002008BE004330BD003430BC00003000
:1001DA00BB000030BA009E312126803120003D0844
:1001EA00D7003C08D6003B08D5003A08D4009A311B
:1001FA00B822803120005708DF005608DE00550873
:10020A00DD005408DC008931B721803120005B0809
:10021A002200D10020005A082200D00020005908EC
:10022A002200CF00200058082200CE0051082100E9
:10023A00D900220050082100D80022004F082100CE
:10024A00D70022004E082100D6008231E2228031F6
:10025A00210059082200C900210058082200C800BC
:10026A00210057082200C700210056082200C600B4
:10027A00D401D701D8015808803A2100DE00803025
:10028A005E02031D4B29143022005702031C4E291B
:10029A004F2951298A2A8A2A2200D901DA015A08C1
:1002AA00803A2100DE0080305E02031D5F2914308F
:1002BA0022005902031C622963296529752A752AB5
:1002CA0022005808F1005708F0001430F2000030FC
:1002DA00F3009A31D5228031220059087007210093
:1002EA00DE0022005A08713D2100DF002200520878
:1002FA0021005E0784002200530821005F3D85002B
:10030A001200013A031D8A298B29602A2200490812
:10031A002000A300220048082000A200220047086B
:10032A002000A100220046082000A000220059084F
:10033A00F0005A08F100890D893B8909F200F3009F
:10034A0001309D316D25803173082000A7007208A5
:10035A00A6007108A5007008A40095319525803182
:10036A0020002308DB002208DA002108D90020082F
:10037A00D800220045082000A300220044082000DB
:10038A00A200220043082000A10022004208200007
:10039A00A00022005708F0005808F100890D893B97
:1003AA008909F200F30001309D316D25803173080F
:1003BA002000A7007208A6007108A5007008A40012
:1003CA0095319525803120002308DF002208DE00C0
:1003DA002108DD002008DC008931B72180312000A6
:1003EA005B082200C10020005A082200C000200039
:1003FA0059082200BF00200058082200BE00410808
:10040A002000DF00220040082000DE0022003F0812
:10041A002000DD0022003E082000DC004130DB0025
:10042A00D830DA000030D9000030D8008931B7213D
:10043A00803120005B082100A30020005A08210017
:10044A00A200200059082100A1002000580821001C
:10045A00A0008831CF20803121002308B70022086C
:10046A00B6002108B5002008B40022005508F000A3
:10047A005608F100890D893B8909F200F300013021
:10048A009D316D25803173082100BB007208BA00C6
:10049A007108B9007008B8009C310E248031031C21
:1004AA00572A582A602A01302100DE005E082200FD
:1004BA00D407602A602A01302200D9070030DA3DC9
:1004CA005A08803A2100DE0080305E02031D702A3D
:1004DA00143022005902031C732A742A6529752ACA
:1004EA0001302200D7070030D83D5808803A210051
:1004FA00DE0080305E02031D852A14302200570276
:10050A00031C882A892A51298A2A90302000D0007F
:10051A009930D100220054082100DE00DF015E0874
:10052A002000D20021005F082000D300803105207E
:10053A00803122005B035C04031DA42AA52AAE2A8B
:10054A00D8302000D0009930D10080310520803188
:10055A00B72A92302000D0009930D100803105208E
:10056A008031B72AFF302200DB07FF30DC3D5C0810
:10057A00803A2100DE0080305E02031DC72A013066
:10058A0022005B020318CA2ACB2A4B28CC2A013044
:10059A002200D5070030D63D5608803A2100DE00F9
:1005AA0080305E02031DDC2A373022005502031C0C
:1005BA00DF2AE02A3528E12A08002100590822000A
:1005CA00A700210058082200A6002100570822008F
:1005DA00A500210056082200A4002708BD0026080D
:1005EA00BC002508BB002408BA00FB2A3A082100EF
:1005FA00DA0022003B082100DB0022003C0821002F
:10060A00DC0022003D082100DD001F30DD36DC0C55
:10061A00DB0CDA0C890B0B2B5B082200B1002100E2
:10062A005A082200B000FF30BA05FF30BB05FF3080
:10063A00BC057F30BD05DB303A020F303B3B493009
:10064A003C3B3F303D3B03182B2B2C2B562B803049
:10065A003C0239303D3B0318332B342B3F2B3F30C0
:10066A002100D9008030D8000030D7000030D600F1
:10067A00E42FE42F21005908A3005808A2005708C4
:10068A00A1005608A0009131672182312100230878
:10069A00D9002208D8002108D7002008D600E42F64
:1006AA00E42FD23022003A0253303B3B7B303C3BB2
:1006BA0040303D3B0318622B632B062DE4303A028F
:1006CA00CB303B3B16303C3B40303D3B031C6E2B52
:1006DA006F2B382C30083104031D742B752BC12B5A
:1006EA00210059082000DB00210058082000DA0008
:1006FA00210057082000D900210056082000D80000
:10070A00D030840099308500003F2100DA00013F93
:10071A00DB00023FDC00033FDD005D082000D7005C
:10072A0021005C082000D60021005B082000D500CB
:10073A0021005A082000D4009A31B82282312000C0
:10074A005708DF005608DE005508DD005408DC00B3
:10075A008931B721823120005B082200AB002000DA
:10076A005A082200AA00200059082200A9002000E5
:10077A0058082200A800002CD03084009930850047
:10078A00003F2100DA00013FDB00023FDC00033FAB
:10079A00DD005D082000DB0021005C082000DA0093
:1007AA0021005B082000D90021005A082000D80047
:1007BA00210059082000DF00210058082000DE002F
:1007CA00210057082000DD00210056082000DC0027
:1007DA008931B721823120005B082200AB0020005A
:1007EA005A082200AA00200059082200A900200065
:1007FA0058082200A8002B082100A30022002A087A
:10080A002100A200220029082100A10022002808B4
:10081A002100A000913167218231210023082000A4
:10082A00D700210022082000D6002100210820003C
:10083A00D500210020082000D4009A31B822823144
:10084A00200057082100D900200056082100D800AE
:10085A00200055082100D700200054082100D600A6
:10086A00E42FE42F062D22003008310403193E2C10
:10087A003F2C9C2CD430840099308500003F210005
:10088A00DA00013FDB00023FDC00033FDD005D08C8
:10089A002000DB0021005C082000DA0021005B0850
:1008AA002000D90021005A082000D8002100590848
:1008BA002000DF00210058082000DE002100570830
:1008CA002000DD00210056082000DC008931B72114
:1008DA00823120005B082200B50020005A0822005D
:1008EA00B400200059082200B30020005808220052
:1008FA00B20035082100A300220034082100A2001A
:10090A00220033082100A100220032082100A000A1
:10091A0093316223823121002308D9002208D800AA
:10092A002108D7002008D600E42FE42F062DD43062
:10093A00840099308500003F2100DA00013FDB0086
:10094A00023FDC00033FDD005D082000DB002100E0
:10095A005C082000DA0021005B082000D900210091
:10096A005A082000D800210059082000D700210089
:10097A0058082000D600210057082000D500210081
:10098A0056082000D4009A31B82282312000570834
:10099A00DF005608DE005508DD005408DC00893106
:1009AA00B721823120005B082200B50020005A08D6
:1009BA002200B400200059082200B3002000580881
:1009CA002200B20035082100A300220034082100C9
:1009DA00A200220033082100A100220032082100CF
:1009EA00A00093316223823121002308D900220812
:1009FA00D8002108D7002008D600E42FE42F062DBE
:100A0A00062DD63022003A0231303B3BE2303C3BE5
:100A1A0040303D3B0318122D132DA82EE0303A0228
:100A2A00ED303B3BAF303C3B40303D3B031C1E2D81
:100A3A001F2DCE2D30083104031D242D252D712D97
:100A4A00210059082000DB00210058082000DA00A4
:100A5A00210057082000D900210056082000D8009C
:100A6A00C830840099308500003F2100DA00013F38
:100A7A00DB00023FDC00033FDD005D082000D700F9
:100A8A0021005C082000D60021005B082000D50068
:100A9A0021005A082000D4009A31B822823120005D
:100AAA005708DF005608DE005508DD005408DC0050
:100ABA008931B721823120005B082200AF00200073
:100ACA005A082200AE00200059082200AD0020007A
:100ADA0058082200AC00B02DC83084009930850037
:100AEA00003F2100DA00013FDB00023FDC00033F48
:100AFA00DD005D082000DB0021005C082000DA0030
:100B0A0021005B082000D90021005A082000D800E3
:100B1A00210059082000DF00210058082000DE00CB
:100B2A00210057082000DD00210056082000DC00C3
:100B3A008931B721823120005B082200AF002000F2
:100B4A005A082200AE00200059082200AD002000F9
:100B5A0058082200AC002F082100A30022002E080A
:100B6A002100A20022002D082100A10022002C0849
:100B7A002100A00091316721823121002308D90088
:100B8A002208D8002108D7002008D600E42FE42F35
:100B9A00A82E2200300831040319D42DD52D3E2E5B
:100BAA00210059082000DF00210058082000DE003B
:100BBA00210057082000DD00210056082000DC0033
:100BCA00CC30840099308500003F2100DA00013FD3
:100BDA00DB00023FDC00033FDD005D082000DB0094
:100BEA0021005C082000DA0021005B082000D900FF
:100BFA0021005A082000D8008931B721823120000B
:100C0A005B08D7005A08D6005908D5005808D400FE
:100C1A009A31B8228231200057082200B5002000FC
:100C2A0056082200B400200055082200B300200014
:100C3A0054082200B20035082100A300220034081B
:100C4A002100A200220033082100A100220032085C
:100C5A002100A00093316223823121002308D900A8
:100C6A002208D8002108D7002008D600E42FE42F54
:100C7A00A82E210059082000DB0021005808200076
:100C8A00DA00210057082000D90021005608200068
:100C9A00D800CC30840099308500003F2100DA006A
:100CAA00013FDB00023FDC00033FDD005D0820005E
:100CBA00D70021005C082000D60021005B08200034
:100CCA00D50021005A082000D4009A31B822823176
:100CDA0020005708DF005608DE005508DD005408DA
:100CEA00DC008931B721823120005B082200B5007F
:100CFA0020005A082200B400200059082200B3003C
:100D0A00200058082200B20035082100A300220062
:100D1A0034082100A200220033082100A100220089
:100D2A0032082100A0009331622382312100230876
:100D3A00D9002208D8002108D7002008D600E42FBD
:100D4A00E42FA82EA82E803022003C027F303D3BA3
:100D5A00031CB02EB12EF22E210059082000DB0010
:100D6A00210058082000DA00210057082000D90085
:100D7A00210056082000D800210059082000D70079
:100D8A00210058082000D600210057082000D5006D
:100D9A00210056082000D4009A31B822823120005E
:100DAA005708DF005608DE005508DD005408DC004D
:100DBA008931B721823120005B082100D900200047
:100DCA005A082100D800200059082100D700200025
:100DDA0058082100D600E42FE42F21005908AE005C
:100DEA005808AD005708AC005608AB003630DA0098
:100DFA005A08AF008C312924823121002B082200A5
:100E0A00A00021002C082200A100890D893B890934
:100E1A00A200A300B62F220039082100A300220055
:100E2A0038082100A200220037082100A100220070
:100E3A0036082100A0009131672182312100230860
:100E4A00D9002208D8002108D7002008D600E42FAC
:100E5A00E42F220039082000D70022003808200099
:100E6A00D600220037082000D500220036082000CC
:100E7A00D4009A31B8228231200057082100A300F9
:100E8A00200056082100A200200055082100A100D8
:100E9A00200054082100A0009331622382312100EE
:100EAA002308D9002208D8002108D7002008D60034
:100EBA00E42FE42F220039082100A3002200380879
:100ECA002100A200220037082100A10022003608D2
:100EDA002100A000913167218231210023082000DE
:100EEA00D700210022082000D60021002108200076
:100EFA00D500210020082000D4009A31B82282317E
:100F0A00200057082100D900200056082100D800E7
:100F1A00200055082100D700200054082100D600DF
:100F2A00E42FE42F220039082100A3002200380808
:100F3A002100A200220037082100A1002200360861
:100F4A002100A00093316223823121002308D900B5
:100F5A002208D8002108D7002008D600E42FE42F61
:100F6A00E42F0330220020052100DA00003022009D
:100F7A0021052100DB000030220022052100DC00CF
:100F8A000030220023052100DD005D08003A031924
:100F9A00DF2F972F5B08003A0319D42F972F5A088F
:100FAA00003A0319102F013A03192E2F033A031995
:100FBA005F2F972F5C08003A0319CF2F972F08004D
:100FCA00E1308400003085000C3088310020873100
:100FDA005D30840001308500083088310020873177
:100FEA00A03084000130850020308831002087310C
:100FFA0020009A31C62A640080010131890B012838
:10100A0000340F3020009100960196170C28080032
:10101A002000C7003C0886008701403FBE00413FD0
:10102A00BF003E0884003F0885001200253A031DD0
:10103A001F282028A7283C0886008701013081073D
:10104A0041310318810A2100E701E801EB01EC01B3
:10105A00FF30E900FF30EA0020003C0886008701E3
:10106A00403FBE00413FBF003E0884003F08850064
:10107A001200753A031D4228432870283C0886004E
:10108A0087010130810741310318810A3D08860032
:10109A00870101088400850102308107003FBE00F4
:1010AA00013FBF003E08C3003F08C400C501C60196
:1010BA004608AF004508AE004408AD004308AC003E
:1010CA00470890319620883120002D08BD002C0851
:1010DA00BC00CE28CE283C0886008701403FBE00CF
:1010EA00413FBF003E0884003F0885001200253AB0
:1010FA00031D802881289B283C088600870101302F
:10110A00810741310318810A2530F1000030F200CD
:10111A004708BE003E08F3009B31CA2388310130DC
:10112A002000BC000030BD00CE28CE283C08860036
:10113A0087010130810741310318810ABC01BD01D1
:10114A00CE28CE283C0886008701403FBE00413F9A
:10115A00BF003E0884003F0885000008C000C101A6
:10116A004008F1004108F2004708C2004208F300B3
:10117A009B31CA23883120003C0886008701013050
:10118A00810741310318810A0130BC000030BD00DB
:10119A00CE28080021006408B3006308B200620880
:1011AA00B1006108B0002308B3002208B200210888
:1011BA00B1002008B0003008A4003108A5003208A8
:1011CA00A6003308A7001730A736A60CA50CA40C56
:1011DA00890BE928FF302405A80000302505A9005D
:1011EA002808813EAE00FF30293DAF002F08803A23
:1011FA00A40080302402031D042917302E02031C88
:10120A00072908290929B6292100AF1B0D290E290A
:10121A006C29FF30A400FF30A5007F30A600003003
:10122A00A7002E0A1C29A737A60CA50CA40C890B0B
:10123A0018292708AD002608AC002508AB002408A9
:10124A00AA0030082A05A40031082B05A500320897
:10125A002C05A60033082D05A70027082604250417
:10126A002404031D39293A293B29B6293008A40048
:10127A003108A5003208A6003308A7001F30A73698
:10128A00A60CA50CA40C890B4429270826042504BE
:10129A002404031D512952295B292A08B0072B0867
:1012AA00B13D2C08B23D2D08B33D5B292A09A400A3
:1012BA002B09A5002C09A6002D09A7002408B005B2
:1012CA002508B1052608B2052708B305AD29300857
:1012DA00A4003108A5003208A6003308A7001F3071
:1012EA00A736A60CA50CA40C890B75292708260479
:1012FA00250424040319822983298C298030B30008
:10130A000030B2000030B1000030B000AD29300822
:10131A00A4003108A5003208A6003308A70001304E
:10132A00A435A50DA60DA70D890B95292708260416
:10133A00250424040319A229A329AD293F30B300A7
:10134A008030B2000030B1000030B000AD29AD29C4
:10135A003308A3003208A2003108A1003008A00017
:10136A00B629080020005B088039E0006008EC001C
:10137A005B35E0006008EE00DA1FC429C529C729D9
:10138A006E14C7296E080319CB29CC29DD296E0AE8
:10139A00031DD029D129DA290030DB000030DA0018
:1013AA000030D9000030D800DA29DA17DB01E62943
:1013BA000030DB000030DA000030D9000030D800FD
:1013CA00E6295F088039E0006008ED006D086C06C8
:1013DA000319F029F129F3296C17F3295F35E00085
:1013EA006008ED00DE1FFA29FB29FD296D14FD298D
:1013FA006D080319012A022A132A6D0A031D062AF7
:10140A00072A102A0030DF000030DE000030DD003D
:10141A000030DC00102ADE17DF011B2A0030DF0053
:10142A000030DE000030DD000030DC006E086D02A6
:10143A000318202A212A672A6C1F242A252A2A2AE5
:10144A008030E0006008EC062A2A6E08E000600896
:10145A00EF006D08E0006008EE006F08E000600829
:10146A00ED005808E0006008EF005C08E000600842
:10147A00D8006F08E0006008DC005908E000600846
:10148A00EF005D08E0006008D9006F08E00060081E
:10149A00DD005A08E0006008EF005E08E00060081E
:1014AA00DA006F08E0006008DE005B08E000600810
:1014BA00EF005F08E0006008DB006F08E0006008EA
:1014CA00DF00672AEF016E08E000E101E009E109A7
:1014DA00E00A0319E10A6D086007E20061080318CF
:1014EA00610AE3006308803AE40080306402031D65
:1014FA00802A1A306202031C832A842AC02A200006
:10150A005B085A0459045804031D8C2A8E2A013098
:10151A008F2A0030E0006008EF000030DB00003066
:10152A00DA000030D9000030D8006D08E000600809
:10153A00EE00C82AC02A6F1CA32AA42AAA2A6F3638
:10154A000138E0006008EF00AD2A0310EF0CAD2A65
:10155A00581CB02AB12AB32AEF17B32A0130E00087
:10156A00DB37DA0CD90CD80CE00BB52A0130E000D5
:10157A006008EE07C02A20006D086E02031CC62A06
:10158A00C72AA02AC82A6C1BCB2ACC2A082B6E0889
:10159A00031DD02AD12ADB2A0030DB000030DA0012
:1015AA000030D9000030D800282C282C5C08D80735
:1015BA005D08D93D5E08DA3D5F08DB3D5B1CE62A23
:1015CA00E72AAF2B6F1CEA2AEB2AF12A6F36013879
:1015DA00E0006008EF00F42A0310EF0CF42A581C0C
:1015EA00F72AF82AFA2AEF17FA2A0130E000DB373D
:1015FA00DA0CD90CD80CE00BFC2A0130E0006008A8
:10160A00EE07AF2BAF2B5B08803AE0005F08803A09
:10161A006002031D1A2B5E085A02031D1A2B5D086D
:10162A005902031D1A2B5C08580203181D2B1E2B86
:10163A006A2BFF30E000FF30E100FF30E200FF30AC
:10164A00E3005C08E4005D08E5005E08E6005F0868
:10165A00E7005809E8005909E9005A09EA005B0954
:10166A00EB00E80A0319E90A0319EA0A0319EB0A63
:10167A006808E4076908E53D6A08E63D6B08E73D46
:10168A006408E0076508E13D6608E23D6708E33D56
:10169A006308DB006208DA006108D9006008D80034
:1016AA008030E0006008EC06EF09EF0A6F08031DBE
:1016BA005F2B602B722B0130D8070030D93D0030E8
:1016CA00DA3D0030DB3D722B722B5C08D8025D08D4
:1016DA00D93B5E08DA3B5F08DB3B5B085A045904D6
:1016EA005804031D792B7A2BA92B6F08031D7E2B17
:1016FA007F2BA92B0030DB000030DA000030D90044
:10170A000030D800282C282CA92B0130D835D90D27
:10171A00DA0DDB0D890B8B2BEF1F942B952B962B58
:10172A0058146F1C992B9A2B9D2B0314EF0DA02B89
:10173A000310EF0DA02B6E080319A42BA52BA92BC0
:10174A000130EE02A92BA92BDA1FAC2BAD2B8A2B69
:10175A00AF2BAF2BED01EF1FB32BB42BC62B6F08AA
:10176A007F390319B92BBA2BBD2BED01ED0AC62B14
:10177A00581CC02BC12BC62BED01ED0AC62BC62B5C
:10178A00C62B6D080319CA2BCB2BFA2B0130D807AD
:10179A000030D93D0030DA3D0030DB3D5B1CD62BF2
:1017AA00D72BFA2B5808E0005908E1005A08E20042
:1017BA005B08E3000130E400E337E20CE10CE00CE3
:1017CA00E40BE12B6308DB006208DA006108D90048
:1017DA006008D8006E0A0319F32BF42BFA2B013098
:1017EA00E0006008EE07FA2BFA2B6E0A0319FE2BAB
:1017FA00FF2B052C6E08031D032C042C152C052C1D
:10180A000030DB000030DA000030D9000030D800A8
:10181A006E08031D112C122C152CEC01152C152CFD
:10182A006E1C182C192C1B2CDA171F2C7F30E00089
:10183A006008DA056E36E0006008DB00EC1F262C33
:10184A00272C282CDB170800220064082100C50079
:10185A00220063082100C400220062082100C3009C
:10186A00220061082100C2002E08C5002D08C4000C
:10187A002C08C3002B08C2004208B0004308B1007C
:10188A004408B2004508B3001F30B336B20CB10C9D
:10189A00B00C890B4A2C3108C1003008C000FF3057
:1018AA004205BC00FF304305BD00FF304405BE00C1
:1018BA007F304505BF0080303E027F303F3B031C2E
:1018CA00672C682CA92C2E082000DB0021002D088B
:1018DA002000DA0021002C082000D90021002B0862
:1018EA002000D80021002E082000D70021002D0852
:1018FA002000D60021002C082000D50021002B084A
:10190A002000D4009A31B8228C3120005708DF0019
:10191A005608DE005508DD005408DC008931B7217D
:10192A008C3121002F0886000130870020005808DA
:10193A00C03F5908C13F5A08C23F5B08C33F210054
:10194A00AB01AC01FF2FFF2FDB303C020F303D3BD8
:10195A00C9303E3B4D303F3B0318B42CB52C532EB7
:10196A002E08F3002D08F2002C08F1002B08F000D5
:10197A009A31F7228C3173082100D1007208D00005
:10198A007108CF007008CE0051082000A70021007E
:10199A0050082000A60021004F082000A5002100C1
:1019AA004E082000A400AC30840099308500003F26
:1019BA002100B000013FB100023FB200033FB30073
:1019CA0033082000A300210032082000A2002100D1
:1019DA0031082000A100210030082000A000953124
:1019EA0095258C3120002308DF002208DE0021081B
:1019FA00DD002008DC00B030840099308500003F0B
:101A0A002100B400013FB500023FB600033FB70012
:101A1A0037082000DB00210036082000DA00210008
:101A2A0035082000D900210034082000D800893167
:101A3A00B7218C3120005B082100A30020005A083E
:101A4A002100A200200059082100A1002000580806
:101A5A002100A000903101208C3121002308D500FB
:101A6A002208D4002108D3002008D2005508F30028
:101A7A005408F2005308F1005208F00001309D3179
:101A8A006D258C3173082100CD007208CC007108D5
:101A9A00CB007008CA0051082000DB002100500862
:101AAA002000DA0021004F082000D90021004E084A
:101ABA002000D80021004D082000A70021004C0872
:101ACA002000A60021004B082000A50021004A089A
:101ADA002000A400A830840099308500003F21002E
:101AEA00B000013FB100023FB200033FB300330828
:101AFA002000A300210032082000A20021003108A2
:101B0A002000A100210030082000A0009531952571
:101B1A008C3120002308D7002208D6002108D500DE
:101B2A002008D4009A31B8228C3120005708DF00EF
:101B3A005608DE005508DD005408DC008931B7215B
:101B4A008C3120005B082100C90020005A082100BE
:101B5A00C800200059082100C700200058082100A9
:101B6A00C6004D082000A70021004C082000A6004E
:101B7A0021004B082000A50021004A082000A400EB
:101B8A00A430840099308500003F2100B000013F55
:101B9A00B100023FB200033FB30033082000A300A4
:101BAA00210032082000A200210031082000A100F3
:101BBA00210030082000A000953195258C312000A5
:101BCA002308D7002208D6002108D5002008D4000F
:101BDA009A31B8228C3120005708DB005608DA0007
:101BEA005508D9005408D800210049082000DF0010
:101BFA00210048082000DE00210047082000DD00FF
:101C0A00210046082000DC008931B7218C312100EF
:101C1A002F0886000130870020005808C03F590865
:101C2A00C13F5A08C23F5B08C33F21004008410434
:101C3A000319202E212E4D2E2F08860001308700F1
:101C4A00403F2000D400413FD500423FD600433FE9
:101C5A00D7009A31B8228C3121002F088600013032
:101C6A00870020005408C03F5508C13F5608C23FAC
:101C7A005708C33F21005209B0005309B100B00A06
:101C8A000319B10A3008AB003108AC00FF2FFF2F4F
:101C9A005308AC005208AB00FF2FFF2F2E08F300A9
:101CAA002D08F2002C08F1002B08F0009A31F722D7
:101CBA008C3173082100D1007208D0007108CF005E
:101CCA007008CE0051082000A7002100500820000B
:101CDA00A60021004F082000A50021004E08200080
:101CEA00A400AC30840099308500003F2100B00088
:101CFA00013FB100023FB200033FB30033082000A6
:101D0A00A300210032082000A2002100310820008F
:101D1A00A100210030082000A000953195258C31C2
:101D2A0020002308DF002208DE002108DD00200849
:101D3A00DC00B030840099308500003F2100B400F7
:101D4A00013FB500023FB600033FB7003708200045
:101D5A00DB00210036082000DA00210035082000C7
:101D6A00D900210034082000D8008931B7218C31EC
:101D7A0020005B082100A30020005A082100A200CD
:101D8A00200059082100A100200058082100A000C5
:101D9A00903101208C3121002308D5002208D4007B
:101DAA002108D3002008D2005508F3005408F20095
:101DBA005308F1005208F00001309D316D258C3135
:101DCA0073082100CD007208CC007108CB0070089E
:101DDA00CA0051082000DB00210050082000DA0068
:101DEA0021004F082000D90021004E082000D80009
:101DFA0021004D082000A70021004C082000A60061
:101E0A0021004B082000A50021004A082000A40058
:101E1A00A830840099308500003F2100B000013FBE
:101E2A00B100023FB200033FB30033082000A30011
:101E3A00210032082000A200210031082000A10060
:101E4A00210030082000A000953195258C31200012
:101E5A002308D7002208D6002108D5002008D4007C
:101E6A009A31B8228C3120005708DF005608DE006C
:101E7A005508DD005408DC008931B7218C31200077
:101E8A005B082100C90020005A082100C800200070
:101E9A0059082100C700200058082100C6004D0833
:101EAA002000A70021004C082000A60021004B08B2
:101EBA002000A50021004A082000A400A4308400C4
:101ECA0099308500003F2100B000013FB100023F78
:101EDA00B200033FB30033082000A30021003208F8
:101EEA002000A200210031082000A10021003008B2
:101EFA002000A000953195258C3120002308D700B9
:101F0A002208D6002108D5002008D4009A31B82228
:101F1A008C3120005708DB005608DA005508D90032
:101F2A005408D800210049082000DF002100480891
:101F3A002000DE00210047082000DD0021004608BD
:101F4A002000DC008931B7218C3120005B08210098
:101F5A00BB0020005A082100BA00200059082100BD
:101F6A00B900200058082100B800400841040319AC
:101F7A00BF2FC02FEE2F3B082000D70021003A08C0
:101F8A002000D600210039082000D5002100380899
:101F9A002000D4009A31B8228C3121002F08860003
:101FAA000130870020005408C03F5508C13F560839
:101FBA00C23F5708C33F21005209B0005309B1007C
:101FCA00B00A0319B10A3008AB003108AC00FF2F80
:101FDA00FF2F2F088600013087003808C03F3908D4
:101FEA00C13F3A08C23F3B08C33F5308AC005208FE
:061FFA00AB00FF2F080000
:1020020021002008A4002108A5002208A600230818
:10201200A7000310260D270DA8002808AA002A08E9
:10202200031D142815281F280030A3000030A20029
:102032000030A1000030A000952895282008A400B7
:102042002108A5002208A6002308A7001F30A736F2
:10205200A60CA50CA40C890B28282408A800280883
:10206200A900A217FF30A005FF30A105FF30A2058D
:102072000030A3059630AA02AA1F402841286428EE
:102082002A08803A973E03184728482853280030E8
:10209200A3000030A2000030A1000030A00095286B
:1020A200952853280130A336A20CA10CA00C890B51
:1020B20054280130A4002408AA07031D61286228BD
:1020C20053288528852820302A02031C69286A287B
:1020D2007E280030A3000030A2000030A1000030B2
:1020E200A000952895287E280130A035A10DA20DCB
:1020F200A30D890B76280130AA022A08031D822823
:1021020083287528852885282908031989288A287B
:102112009528A009A109A209A309A00A0319A10AE5
:102122000319A20A0319A30A08002000B300210020
:10213200EA1B9C289D28A128FD30EB05FF30EC0509
:102142006A08803A2000B00080303002031DAC28BB
:102152000130210069020318AF28B028B6280130E7
:102162002000B1000030B200BE2821006A08200021
:10217200B200210069082000B10021006808200097
:10218200B500210067082000B4002F08B9002E080E
:10219200B8002D08B7002C08B6001F30BA00003076
:1021A200BB003A08A03E8600013087008101212948
:1021B200FF302000BA07FF30BB3D0030F300003093
:1021C200F2000030F1000A30F0003908F700380858
:1021D200F6003708F5003608F4009C315F24903190
:1021E2007008303E2000B0003A08A03E8600013060
:1021F200870030088100FF30B107FF30B23DFF3069
:10220200B407FF30B53D0030F3000030F20000307B
:10221200F1000A30F0003908F7003808F6003708F4
:10222200F5003608F4009D310C259031730820002A
:10223200B9007208B8007108B7007008B600212909
:102242003A083B0403192629272952293908380458
:1022520037043604031D2E292F29D9283208803A43
:10226200B00080303002031D3829013031020318DA
:102272003B293C29D92820003508803AB00080301B
:102282003002031D462901303402031C49294A2920
:1022920052292100EB184E294F29D92852295229B7
:1022A200522920003A08A03EB0003008A4003508A8
:1022B200A6003408A50033089C31B02490312000D8
:1022C2002508AD002408AC00662908002100230877
:1022D2002000A300210022082000A20021002108E2
:1022E2002000A100210020082000A00021002308D6
:1022F2002000A700210022082000A60021002108BA
:102302002000A500210020082000A4009531952579
:102312009131200023082100C3002000220821005F
:10232200C200200021082100C10020002008210055
:10233200C00043082000A300210042082000A200A0
:10234200210041082000A100210040082000A00037
:10235200210043082000A700210042082000A60017
:10236200210041082000A500210040082000A4000F
:10237200953195259131200023082100BF002000CE
:1023820022082100BE00200021082100BD002000FB
:1023920020082100BC00BC30840099308500003F39
:1023A200A400013FA500023FA600033FA7002708A3
:1023B2002000DB00210026082000DA002100250889
:1023C2002000D900210024082000D800B830840061
:1023D20099308500003F2100A800013FA900023F7B
:1023E200AA00033FAB002B082000A30021002A080B
:1023F2002000A200210029082000A10021002808B5
:102402002000A000210043082000A700210042086C
:102412002000A600210041082000A500210040085C
:102422002000A40095319525913120002308DF007A
:102432002208DE002108DD002008DC008931B721F6
:10244200913120005B082100AF0020005A082100D2
:10245200AE00200059082100AD00200058082100DC
:10246200AC0043082000A300210042082000A20083
:10247200210041082000A100210040082000A00006
:1024820021003F082000A70021003E082000A600EE
:1024920021003D082000A50021003C082000A400E6
:1024A200953195259131200023082100B3002000A9
:1024B20022082100B200200021082100B1002000E2
:1024C20020082100B0003F302000DB008030DA001D
:1024D2000030D9000030D800C43084009930850023
:1024E200003F2100A400013FA500023FA600033FD8
:1024F200A70027082000A300210026082000A20030
:10250200210025082000A100210024082000A000AD
:10251200210043082000A700210042082000A60055
:10252200210041082000A500210040082000A4004D
:1025320095319525913120002308DF002208DE0025
:102542002108DD002008DC008931B721913120000B
:102552005B082100B70020005A082100B6002000C5
:1025620059082100B500200058082100B400C030ED
:10257200840099308500003FA400013FA500023F7E
:10258200A600033FA70027082000A3002100260879
:102592002000A200210025082000A100210024081B
:1025A2002000A00021003F082000A70021003E08D3
:1025B2002000A60021003D082000A50021003C08C3
:1025C2002000A40095319525913120002308DB00DD
:1025D2002208DA002108D9002008D8002100370893
:1025E2002000DF00210036082000DE00210035082F
:1025F2002000DD00210034082000DC008931B721F1
:10260200913120005B082100BB0020005A08210004
:10261200BA00200059082100B90020005808210002
:10262200B8002F082000A30021002E082000A200DD
:1026320021002D082000A10021002C082000A0006C
:10264200210033082000A700210032082000A60044
:10265200210031082000A500210030082000A4003C
:1026620095319525913120002308DB002208DA00FC
:102672002108D9002008D80021003B082000DF00F3
:1026820021003A082000DE00210039082000DD0088
:10269200210038082000DC008931B7219131200067
:1026A2005B082100A30020005A082100A20020009C
:1026B20059082100A100200058082100A000612B28
:1026C2000800210023082000A30021002208200086
:1026D200A200210021082000A100210020082000E2
:1026E200A000210023082000A700210022082000CA
:1026F200A600210021082000A500210020082000BA
:10270200A400953195259331200023082100C700AC
:10271200200022082100C600200021082100C50057
:10272200200020082100C40047082000A300210047
:1027320046082000A200210045082000A100210037
:1027420044082000A000210047082000A700210023
:1027520046082000A600210045082000A50021000F
:1027620044082000A40095319525933120002308C8
:102772002100B300200022082100B200200021081D
:102782002100B100200020082100B0009830840010
:1027920099308500003FA400013FA500023FA6003A
:1027A200033FA70027082000DB00210026082000A5
:1027B200DA00210025082000D90021002408200089
:1027C200D8009430840099308500003F2100A80091
:1027D200013FA900023FAA00033FAB002B082000E3
:1027E200A30021002A082000A200210029082000BD
:1027F200A100210028082000A00021004708200095
:10280200A700210046082000A6002100450820005C
:10281200A500210044082000A4009531952593319C
:1028220020002308DF002208DE002108DD00200846
:10283200DC008931B721933120005B082100AF0011
:1028420020005A082100AE00200059082100AD00E6
:10285200200058082100AC0023082000A30021001A
:1028620022082000A200210021082000A10021004E
:1028720020082000A000210047082000A700210016
:1028820046082000A600210045082000A5002100DE
:1028920044082000A4009531952593312000230897
:1028A2002100C300200022082100C20020002108CC
:1028B2002100C100200020082100C00033082000B0
:1028C200A300210032082000A200210031082000CC
:1028D200A100210030082000A000210043082000B0
:1028E200A700210042082000A60021004108200084
:1028F200A500210040082000A400953195259331C0
:10290200200023082100B700200022082100B60081
:10291200200021082100B500200020082100B40079
:10292200A030840099308500003FA400013FA5003B
:10293200023FA600033FA70027082000DB0021007A
:1029420026082000DA00210025082000D9002100F5
:1029520024082000D8009C30840099308500003F74
:102962002100A800013FA900023FAA00033FAB00DB
:102972002B082000A30021002A082000A200210029
:1029820029082000A100210028082000A000210021
:1029920047082000A700210046082000A6002100C9
:1029A20045082000A500210044082000A40095311C
:1029B2009525933120002308DF002208DE0021083C
:1029C200DD002008DC008931B721933120005B084B
:1029D2002100BB0020005A082100BA00200059083B
:1029E2002100B900200058082100B8002308200067
:1029F200DB00210022082000DA002100210820004B
:102A0200D900210020082000D8002100430820001E
:102A1200A300210042082000A2002100410820005A
:102A2200A100210040082000A00021003B08200056
:102A3200A70021003A082000A60021003908200042
:102A4200A500210038082000A40095319525933176
:102A520020002308DF002208DE002108DD00200814
:102A6200DC008931B721933120005B082100BF00CF
:102A720020005A082100BE00200059082100BD0094
:102A8200200058082100BC002F082000A3002100CC
:102A92002E082000A20021002D082000A100210004
:102AA2002C082000A000210037082000A7002100E8
:102AB20036082000A600210035082000A5002100CC
:102AC20034082000A4009531952593312000230875
:102AD200DB002208DA002108D9002008D8002100F2
:102AE2003F082000DF0021003E082000DE00210018
:102AF2003D082000DD0021003C082000DC00893177
:102B0200B721933120005B082100A30020005A085E
:102B12002100A200200059082100A100200058082D
:102B22002100A000942D0800200023088039A8006D
:102B32002808AD002335A8002808B300A21FA22D43
:102B4200A32DA52D3314A52D33080319A92DAA2DC4
:102B5200BA2D330A031DAE2DAF2DB82D0030A300C0
:102B62000030A2000030A1000030A000B82DA21752
:102B7200C32D0030A3000030A2000030A1000030BD
:102B8200A000C32D27088039A8002808AD062735E4
:102B9200A8002808B200A61FCF2DD02DD22D3214A6
:102BA200D22D32080319D62DD72DE72D320A031D57
:102BB200DB2DDC2DE52D0030A7000030A600003013
:102BC200A5000030A400E52DA617F02D0030A700C7
:102BD2000030A6000030A5000030A400F02D32081D
:102BE2000319F42DF52DFB2D3308031DF92DFA2DB4
:102BF200052EFB2D0030A3000030A2000030A10002
:102C02000030A000FF2FFF2F2008A8002808F000A6
:102C120026089B311A23953171082000B9007008EB
:102C2200B8003808A800A901AA01AB012B08B1001D
:102C32002A08B0002908AF002808AE003908A80009
:102C4200A901AA01AB012B08B7002A08B60029087E
:102C5200B5002808B4002108A8002808F0002508BB
:102C62009B311A23953171082000B9007008B80011
:102C72003808A800A901AA01AB012808AE07290853
:102C8200AF3D2A08B03D2B08B13D3908A800A90183
:102C9200AA01AB012808B4072908B53D2A08B63DA8
:102CA2002B08B73D2208A8002808F00024089B3111
:102CB2001A23953171082000B9007008B80038084D
:102CC200A800A901AA01AB012808AE072908AF3D57
:102CD2002A08B03D2B08B13D3908A800A901AA0174
:102CE200AB012808B4072908B53D2A08B63D2B08D0
:102CF200B73D0830AE35AF0DB00DB10D890B7B2E4F
:102D02002108A8002808F00024089B311A239531D5
:102D120071082000B9007008B8003808AE073908F9
:102D2200AF3D0030B03DB13D2008A8002808F000BA
:102D320025089B311A23953171082000B9007008CB
:102D4200B8003808AE073908AF3D0030B03DB13D9C
:102D52000830AE35AF0DB00DB10D890BAA2E20088B
:102D6200A8002808F00024089B311A239531710825
:102D72002000B9007008B8003808AE073908AF3D26
:102D82000030B03DB13D2108A8002808F000260817
:102D92009B311A23953171082000B9007008B800E0
:102DA2003808B4073908B53D0030B63DB73D2208B2
:102DB200A8002808F00025089B311A2395317108D4
:102DC2002000B9007008B8003808B4073908B53DCA
:102DD2000030B63DB73D2208A8002808F0002608BA
:102DE2009B311A23953171082000B9007008B80090
:102DF2003808A8003908A900AA01AB010830A83593
:102E0200A90DAA0DAB0D890B002F2808B4072908BC
:102E1200B53D2A08B63D2B08B73D2E08A8002F085D
:102E2200A9003008AA003108AB001830AB36AA0C52
:102E3200A90CA80C890B172F2808B4072908B53D3F
:102E42002A08B63D2B08B73D0830AE35AF0DB00DA0
:102E5200B10D890B262F33083207A800A901A90D4D
:102E62002808823EB800FF30293DB900512F0130B9
:102E7200B435B50DB60DB70D890B392FB11F422FE1
:102E8200432F452F3414452F0130AE35AF0DB00D11
:102E9200B10D890B462FFF30B807FF30B93D512FD6
:102EA200B61F542F552F382F562FB201B11F5A2F4C
:102EB2005B2F7B2FFF302E05A800FF302F05A900C6
:102EC200FF303005AA007F303105AB002B082A0401
:102ED2002904280403196E2F6F2F722FB201B20A30
:102EE2007B2F341C752F762F7B2FB201B20A7B2FDA
:102EF2007B2F7B2F320803197F2F802FAA2F0130BF
:102F0200B4070030B53D0030B63D0030B73D371C48
:102F12008B2F8C2FAA2F3408A8003508A900360859
:102F2200AA003708AB000130AC00AB37AA0CA90CE1
:102F3200A80CAC0B962F2B08B7002A08B60029085C
:102F4200B5002808B4000130B8070030B93DAA2FF7
:102F5200AA2F3908803AA80080302802031DB32F17
:102F6200FF303802031CB62FB72FC12F7F3020004D
:102F7200B7008030B6000030B5000030B400F22F48
:102F820020003908803AA80080302802031DCB2F88
:102F9200013038020318CE2FCF2FDA2F0030200055
:102FA200B7000030B6000030B5000030B400AD010B
:102FB200F22F20003808A8002808B300FF30B4051B
:102FC200FF30B5057F30B6050030B705331CEA2F58
:102FD200EB2FED2FB617ED2F3336A8002808B700D8
:102FE200F22F2D08A8002808B7043708A3003608D6
:102FF200A2003508A1003408A000FF2F0800003409
:10300200003400340034003400340034003400341E
:10301200003400340034003400340034003400340E
:1030220000340034003400340034003400340034FE
:1030320000340034003400340034003400340034EE
:1030420000340034003400340034003400340034DE
:1030520000340034003400340034003400340034CE
:1030620000340034003400340034003400340034BE
:1030720000340034003400340034003400340034AE
:10308200003400340034003400340034003400349E
:10309200003400340134003400340034003400348D
:1030A200003400340034003400340034003400347E
:1030B200003400340034003400340134003400346D
:1030C200003400340034003400340034003400345E
:1030D200003400340034003400340034003400344E
:1030E200013400340034003400340034003400343D
:1030F200003400340034003400340034003400342E
:10310200003400340034013400340034003400341C
:10311200003400340034003400340034003401340C
:1031220000340034003400340034003401340034FC
:1031320000340034003400340034003400340034ED
:1031420000340034003400340134003400340034DC
:1031520000340134003400340034003400340034CC
:1031620000340034003400340034003400340034BD
:1031720000340134003400340134003400340034AB
:10318200003400340034003400340034003400349D
:10319200003400340034003400340034013401348B
:1031A200003400340034003400340034003400347D
:1031B200003400340034003400340034003400346D
:1031C200003400340134013400340034003400345B
:1031D200003400340034003400340034003400344D
:1031E200003400340034003400340134003400343C
:1031F200013400340034003400340034003400342C
:10320200003400340034003400340034003400341C
:10321200013400340034003400340134003400340A
:1032220000340034003400340034003400340034FC
:1032320000340034003401340034003400340034EB
:1032420000340034013400340034003400340034DB
:1032520000340034003400340034003400340034CC
:1032620000340034003400340034003400340134BB
:1032720000340034003400340034003400340034AC
:10328200003400340034003400340034003400349C
:10329200003400340034003401340034003400348B
:1032A200003400340034003400340034003400347C
:1032B200003400340034003400340034003400346C
:1032C200003401340034003400340034003400345B
:1032D200003400340034003400340034003400344C
:1032E200003400340034003400340034013400343B
:1032F200003400340034003400340034003400342C
:10330200003400340034003400340034003400341B
:1033120000340034003400340034003400342534E6
:103322007534203400343C346C3436343634CF3483
:1033320007345034B9348434883408343C34AB34E0
:10334200AA342A34BE34A334853488343234DA348D
:103352000F34C9343F348334F93422343F340034D7
:10336200003400343F340034003440344B341734DA
:103372009A34CC3437343F340434B634BA349F34BC
:10338200AA342A343D34003400340034BF34DB34F0
:103392000F34C9344034E434CB3496344034DB3413
:1033A2000F3449344034DB340F34C9343F340A34E7
:0233B2000034E5
:10355600200096131617080022009E169D170800D5
:10356600F000700822009A00080020005708560450
:10357600550454040319C02AC12AC42A8030D70628
:10358600C42AC52A08009A31AF229A31883106200A
:103596009A3180311D209A319A31AB229A31D32A41
:1035A60080310228F401F501D82A701CDB2ADC2AB6
:1035B600E02A7208F4077308F53D0130F235F30D81
:1035C600890BE12A0130F136F00C890BE62A7008E6
:1035D6007104031DEF2AF02AD82AF12A7508F10092
:1035E6007408F000F62A080022006008F7005F0859
:1035F600F6005E08F5005D08F4007308F70072082F
:10360600F6007108F5007008F400FF30F405FF308D
:10361600F505FF30F6057F30F7057708F3007608E5
:10362600F2007508F1007408F000192B0800F80084
:10363600F401F5017008F200F3017208F600730850
:10364600F700252B781C282B292B2D2B7608F40721
:103656007708F53D0130F635F70D890B2E2B031053
:10366600F80C7808031D382B392B252B3A2B7508B7
:10367600F1007408F0003F2B0800F7007708F2000D
:103686007208F6004B2B0130F2007208F7074B2B3D
:1036960077088600013087000108031D532B542B41
:1036A600462B552B7608F2000130F300F209F30998
:1036B600F20A0319F30A7708F4000130F5007208DC
:1036C6007407F0007308753DF100692B08002000AF
:1036D600A300A101A201832B2008FA00FB017A08AE
:1036E600F1007B08F2007908FC007C08F3009B31AE
:1036F600CA239B3101302000A1070030A23D832B55
:1037060021082307FA007A0886000130870001089D
:10371600FB007B08A0002008031D922B932B6F2B28
:10372600942B08002000CD004908CF004808CE00A1
:103736002100E501E601B52B4E302000CB004B08F9
:10374600BC004A08CC004C08BD004D0888310D204D
:103756009B3120003C082100E50720003D082100A0
:10376600E63DB52B20004E0884004F088500120068
:10377600031DBE2BBF2B9F2BC02B210066082000EC
:10378600C900210065082000C800C92B080073087D
:103796000319CE2BCF2BD52B7308031DD32BD42B7C
:1037A600DA2BD52B71089A31B3229B310D2C730875
:1037B600033E86008701160001040319E32BE42B60
:1037C600022C7308033E86008701403FF400413F08
:1037D600F500730A86008701403FF600413FF70077
:1037E6007708803AF8007508803A7802031DFD2BA9
:1037F600740876020318002C012C0D2C022C730A77
:10380600860087010130810741310318810A0D2C9A
:103816000D2C0D2C0800003021003405BC000030B2
:103826003505BD0080303605BE007F303705BF0048
:103836003F083E043D043C04031D222C232C2B2C64
:103846000030B7000030B6000030B5000030B400DC
:1038560000303805BC0000303905BD0080303A051F
:10386600BE007F303B05BF003F083E043D043C04DC
:10387600031D3E2C3F2C472C0030BB000030BA0005
:103886000030B9000030B8003B083706031D552C40
:103896003A083606031D552C39083506031D552CE6
:1038A600380834060319582C592C5B2C03105E2C4F
:1038B60003145E2C5E2C08007308720471047004F5
:1038C6000319662C672CA62CF901F90A762C01300F
:1038D600F035F10DF20DF30D890B6B2C0130F8006C
:1038E6007808F907762CF31F792C7A2C6A2C7C2C15
:1038F6007C2C73087702031D8A2C72087602031D3E
:103906008A2C71087502031D8A2C70087402031C28
:103916008D2C8E2C972C7008F4027108F53B7208DA
:10392600F63B7308F73B972C0130F336F20CF10C9B
:10393600F00C890B982C0130F902031DA32CA42C42
:103946007C2CA62CA62C7708F3007608F2007508C6
:10395600F1007408F000AF2C08002000AB00210035
:103966006B1CB62CB72CC12C20002B08FD007D0843
:10397600F90024089B316A239C31C12C2000A61B28
:10398600C52CC62CCB2C2608AA002508A900CD2CB0
:10399600A901AA01A701A801E22C2030F1000030FC
:1039A600F20020002B08FD007D08F3009B31CA239E
:1039B6009C3101302000A7070030A83DE22C2808E2
:1039C600803AFD002A08803A7D02031DEC2C290866
:1039D6002702031CEF2CF02CD02C21006B18F42CA2
:1039E600F52CFE2C20002B08FD007D08F90024088C
:1039F6009B316A239C31200024089B3140239C3153
:103A0600200029087007A4002A08713DA5000B2D87
:103A160008000030FC000030FB000030FA000030E7
:103A2600F900730872047104700403191B2D1C2D10
:103A3600632DFD01FD0A2B2D0130F035F10DF20D40
:103A4600F30D890B202D0130F8007808FD072B2D8A
:103A5600F31F2E2D2F2D1F2D312D312D0130F93530
:103A6600FA0DFB0DFC0D890B322D73087702031D31
:103A7600462D72087602031D462D71087502031D38
:103A8600462D70087402031C492D4A2D542D7008CA
:103A9600F4027108F53B7208F63B7308F73B79149C
:103AA600542D0130F336F20CF10CF00C890B552D28
:103AB6000130FD02031D602D612D312D632D632D17
:103AC6007C08F3007B08F2007A08F1007908F00020
:103AD6006C2D0800F80078080319722D732D872DB8
:103AE600F31F762D772D872D7009FA007109FB00DB
:103AF6007209FC007309FD00FA0A0319FB0A03198F
:103B0600FC0A0319FD0A8F2D7308FD007208FC00DC
:103B16007108FB007008FA007308720471047004DF
:103B2600031D962D972DA12D0030F3000030F200D5
:103B36000030F1000030F000202E202E9630F400E8
:103B46007408F900B22D0130F4007408F907013049
:103B5600FD36FC0CFB0CFA0C890BAB2DB22DFE309E
:103B66007D05031DB72DB82DA62DCD2DCD2D0130EC
:103B7600F4007408F9070130FA070030FB3D003005
:103B8600FC3D0030FD3D0130FD36FC0CFB0CFA0C13
:103B9600890BC72DFF307D05031DD22DD32DBA2DE0
:103BA600DF2DDF2D0130F9020130FA35FB0DFC0D5A
:103BB600FD0D890BD82DDF2DFC1BE22DE32DEA2D03
:103BC600023079020318E82DE92DD52DEA2D791852
:103BD600ED2DEE2DF62DFF30FA05FF30FB057F307B
:103BE600FC05FF30FD050310F90C7908F400F5011A
:103BF600F601F7011830F435F50DF60DF70D890BC2
:103C0600FE2D7408FA047508FB047608FC04770890
:103C1600FD0478080319102E112E172EF31F142EEB
:103C2600152E172EFD17172E7D08F3007C08F200BF
:103C36007B08F1007A08F000202E080020004108D9
:103C46008039C2004208CB004135C2004208D2008A
:103C5600C01F2E2E2F2E312E5214312E520803192C
:103C6600352E362E472E520A031D3A2E3B2E442E53
:103C76000030C1000030C0000030BF000030BE0080
:103C8600442EC017C101502E0030C1000030C000C4
:103C96000030BF000030BE00502E3D088039C20003
:103CA6004208CB063D35C2004208D300BC1F5C2E3D
:103CB6005D2E5F2E53145F2E53080319632E642E58
:103CC600752E530A031D682E692E722E0030BD0014
:103CD6000030BC000030BB000030BA00722EBC17AA
:103CE600BD017D2E0030BD000030BC000030BB00A1
:103CF6000030BA003D083C043B043A04031D842E00
:103D0600852E9F2E0030C1000030C0000030BF005D
:103D16000030BE008030C0047F30C1044B08C200B2
:103D26004208C1044108BD004008BC003F08BB0072
:103D36003E08BA00FF2FFF2F5208031DA32EA42E04
:103D4600B62E0030C1000030C0000030BF00003089
:103D5600BE004108BD004008BC003F08BB003E084D
:103D6600BA00FF2FFF2F5308C200C301C209C309BF
:103D7600C20A0319C30A52084207C40043080318BB
:103D8600430AC50044087F3ECC000030453DCD00C7
:103D96004108CA004008C9003F08C8003E08C700DD
:103DA6000030C1000030C0000030BF000030BE004F
:103DB6000030D1000030D0000030CF000030CE00FF
:103DC600D301272F53080319E92EEA2E062F0130B7
:103DD600C735C80DC90DCA0D890BEB2E0130BE358E
:103DE600BF0DC00DC10D890BF22ED11FFB2EFC2E6F
:103DF600FE2E3E14FE2E0130CE35CF0DD00DD10D48
:103E0600890BFF2E062F3D084A02031D142F3C087E
:103E16004902031D142F3B084802031D142F3A08BC
:103E26004702031C172F182F222F51173A08C702D3
:103E36003B08C83B3C08C93B3D08CA3B222F013022
:103E4600C2004208D307272F1A305302031C2C2F17
:103E56002D2FE52E2E2F4A0849044804470403193E
:103E6600352F362F522F4E14522F522F0130BE357A
:103E7600BF0DC00DC10D890B3A2FD11F432F442F03
:103E8600462F3E14462F0130CE35CF0DD00DD10D25
:103E9600890B472FFF30CC07FF30CD3D522FC01F77
:103EA600552F562F392F572FD301D11F5B2F5C2F3C
:103EB6007C2FFF304E05C200FF304F05C300FF3098
:103EC6005005C4007F305105C5004508440443042D
:103ED600420403196F2F702F732FD301D30A7C2F3F
:103EE6003E1C762F772F7C2FD301D30A7C2F7C2F75
:103EF6007C2F53080319802F812FAB2F0130BE076B
:103F06000030BF3D0030C03D0030C13D411C8C2F0C
:103F16008D2FAB2F3E08C2003F08C3004008C400E7
:103F26004108C5000130C600C537C40CC30CC20C1D
:103F3600C60B972F4508C1004408C0004308BF00C0
:103F46004208BE000130CC070030CD3DAB2FAB2F71
:103F56004D08803AC20080304202031DB42FFF3064
:103F66004C02031CB72FB82FC52FFF302000CC0002
:103F76000030CD000030C1000030C0000030BF006E
:103F86000030BE0020004D08803AC2008030420258
:103F9600031DCF2F01304C020318D22FD32FDF2F52
:103FA6002000CC01CD010030C1000030C00000303F
:103FB600BF000030BE00CB0120004C08C200420802
:103FC600D200521CE72FE82FEA2FC017EE2F7F30C2
:103FD600C2004208C0055236C2004208C1004B0862
:103FE600C2004208C1044108BD004008BC003F08A9
:0A3FF600BB003E08BA00FF2F0800D0
:020000040001F9
:0A000E008C3FFF3F9F3FFF3FFF3F85
:00000001FF
